{
  "_format": "hh-sol-artifact-1",
  "contractName": "Marketplace",
  "sourceName": "src/contracts/Marketplace.sol",
  "abi": [
    {
      "inputs": [
        {
          "internalType": "uint256",
          "name": "_index",
          "type": "uint256"
        }
      ],
      "name": "buyNFT",
      "outputs": [],
      "stateMutability": "payable",
      "type": "function"
    },
    {
      "inputs": [],
      "name": "getItemsList",
      "outputs": [
        {
          "components": [
            {
              "internalType": "string",
              "name": "name",
              "type": "string"
            },
            {
              "internalType": "string",
              "name": "imgUrl",
              "type": "string"
            },
            {
              "internalType": "uint256",
              "name": "index",
              "type": "uint256"
            },
            {
              "internalType": "address",
              "name": "tokenAddress",
              "type": "address"
            },
            {
              "internalType": "uint256",
              "name": "tokenID",
              "type": "uint256"
            },
            {
              "internalType": "uint256",
              "name": "price",
              "type": "uint256"
            },
            {
              "internalType": "address payable",
              "name": "owner",
              "type": "address"
            },
            {
              "internalType": "string",
              "name": "url",
              "type": "string"
            }
          ],
          "internalType": "struct Marketplace.Item[]",
          "name": "",
          "type": "tuple[]"
        }
      ],
      "stateMutability": "view",
      "type": "function"
    },
    {
      "inputs": [
        {
          "internalType": "uint256",
          "name": "",
          "type": "uint256"
        }
      ],
      "name": "items",
      "outputs": [
        {
          "internalType": "string",
          "name": "name",
          "type": "string"
        },
        {
          "internalType": "string",
          "name": "imgUrl",
          "type": "string"
        },
        {
          "internalType": "uint256",
          "name": "index",
          "type": "uint256"
        },
        {
          "internalType": "address",
          "name": "tokenAddress",
          "type": "address"
        },
        {
          "internalType": "uint256",
          "name": "tokenID",
          "type": "uint256"
        },
        {
          "internalType": "uint256",
          "name": "price",
          "type": "uint256"
        },
        {
          "internalType": "address payable",
          "name": "owner",
          "type": "address"
        },
        {
          "internalType": "string",
          "name": "url",
          "type": "string"
        }
      ],
      "stateMutability": "view",
      "type": "function"
    },
    {
      "inputs": [
        {
          "internalType": "string",
          "name": "_name",
          "type": "string"
        },
        {
          "internalType": "string",
          "name": "_imgUrl",
          "type": "string"
        },
        {
          "internalType": "uint256",
          "name": "_tokenID",
          "type": "uint256"
        },
        {
          "internalType": "uint256",
          "name": "_price",
          "type": "uint256"
        },
        {
          "internalType": "address",
          "name": "_tokenAddress",
          "type": "address"
        },
        {
          "internalType": "string",
          "name": "_url",
          "type": "string"
        }
      ],
      "name": "listForSale",
      "outputs": [],
      "stateMutability": "nonpayable",
      "type": "function"
    },
    {
      "inputs": [
        {
          "internalType": "address",
          "name": "",
          "type": "address"
        },
        {
          "internalType": "uint256",
          "name": "",
          "type": "uint256"
        }
      ],
      "name": "listedTokens",
      "outputs": [
        {
          "internalType": "bool",
          "name": "",
          "type": "bool"
        }
      ],
      "stateMutability": "view",
      "type": "function"
    },
    {
      "inputs": [],
      "name": "totalItems",
      "outputs": [
        {
          "internalType": "uint256",
          "name": "",
          "type": "uint256"
        }
      ],
      "stateMutability": "view",
      "type": "function"
    }
  ],
  "bytecode": "0x608060405234801561001057600080fd5b5061229a806100206000396000f3fe6080604052600436106100555760003560e01c80632799276d1461005a5780633cf29d041461008557806351ed8288146100ae5780638ff152a8146100ca578063bfb231d2146100f5578063d2c3b71014610139575b600080fd5b34801561006657600080fd5b5061006f610176565b60405161007c9190611d3d565b60405180910390f35b34801561009157600080fd5b506100ac60048036038101906100a791906117d6565b610182565b005b6100c860048036038101906100c391906118a7565b6106b4565b005b3480156100d657600080fd5b506100df610f8c565b6040516100ec9190611bed565b60405180910390f35b34801561010157600080fd5b5061011c600480360381019061011791906118a7565b61126c565b604051610130989796959493929190611c2a565b60405180910390f35b34801561014557600080fd5b50610160600480360381019061015b9190611735565b61149c565b60405161016d9190611c0f565b60405180910390f35b60008080549050905090565b60008080549050905060008390508073ffffffffffffffffffffffffffffffffffffffff16636352211e876040518263ffffffff1660e01b81526004016101c99190611d3d565b60206040518083038186803b1580156101e157600080fd5b505afa1580156101f5573d6000803e3d6000fd5b505050506040513d601f19601f82011682018060405250810190610219919061170c565b73ffffffffffffffffffffffffffffffffffffffff163373ffffffffffffffffffffffffffffffffffffffff1614610286576040517f08c379a000000000000000000000000000000000000000000000000000000000815260040161027d90611d1d565b60405180910390fd5b600160008573ffffffffffffffffffffffffffffffffffffffff1673ffffffffffffffffffffffffffffffffffffffff168152602001908152602001600020600087815260200190815260200160002060009054906101000a900460ff1615610324576040517f08c379a000000000000000000000000000000000000000000000000000000000815260040161031b90611cbd565b60405180910390fd5b8073ffffffffffffffffffffffffffffffffffffffff1663081812fc876040518263ffffffff1660e01b815260040161035d9190611d3d565b60206040518083038186803b15801561037557600080fd5b505afa158015610389573d6000803e3d6000fd5b505050506040513d601f19601f820116820180604052508101906103ad919061170c565b73ffffffffffffffffffffffffffffffffffffffff163073ffffffffffffffffffffffffffffffffffffffff16148061046d57508073ffffffffffffffffffffffffffffffffffffffff1663e985e9c533306040518363ffffffff1660e01b815260040161041c929190611bc4565b60206040518083038186803b15801561043457600080fd5b505afa158015610448573d6000803e3d6000fd5b505050506040513d601f19601f8201168201806040525081019061046c91906117ad565b5b6104ac576040517f08c379a00000000000000000000000000000000000000000000000000000000081526004016104a390611cdd565b60405180910390fd5b60006040518061010001604052808a81526020018981526020018481526020018673ffffffffffffffffffffffffffffffffffffffff1681526020018881526020018781526020013373ffffffffffffffffffffffffffffffffffffffff16815260200185815250908060018154018082558091505060019003906000526020600020906008020160009091909190915060008201518160000190805190602001906105599291906114cb565b5060208201518160010190805190602001906105769291906114cb565b506040820151816002015560608201518160030160006101000a81548173ffffffffffffffffffffffffffffffffffffffff021916908373ffffffffffffffffffffffffffffffffffffffff1602179055506080820151816004015560a0820151816005015560c08201518160060160006101000a81548173ffffffffffffffffffffffffffffffffffffffff021916908373ffffffffffffffffffffffffffffffffffffffff16021790555060e082015181600701908051906020019061063f9291906114cb565b50505060018060008673ffffffffffffffffffffffffffffffffffffffff1673ffffffffffffffffffffffffffffffffffffffff168152602001908152602001600020600088815260200190815260200160002060006101000a81548160ff0219169083151502179055505050505050505050565b600081815481106106ee577f4e487b7100000000000000000000000000000000000000000000000000000000600052603260045260246000fd5b9060005260206000209060080201600501543414610741576040517f08c379a000000000000000000000000000000000000000000000000000000000815260040161073890611cfd565b60405180910390fd5b600080828154811061077c577f4e487b7100000000000000000000000000000000000000000000000000000000600052603260045260246000fd5b906000526020600020906008020160030160009054906101000a900473ffffffffffffffffffffffffffffffffffffffff1690508073ffffffffffffffffffffffffffffffffffffffff166342842e0e60008481548110610806577f4e487b7100000000000000000000000000000000000000000000000000000000600052603260045260246000fd5b906000526020600020906008020160060160009054906101000a900473ffffffffffffffffffffffffffffffffffffffff163360008681548110610873577f4e487b7100000000000000000000000000000000000000000000000000000000600052603260045260246000fd5b9060005260206000209060080201600401546040518463ffffffff1660e01b81526004016108a393929190611b8d565b600060405180830381600087803b1580156108bd57600080fd5b505af11580156108d1573d6000803e3d6000fd5b505050506000808273ffffffffffffffffffffffffffffffffffffffff16632a55205a6000868154811061092e577f4e487b7100000000000000000000000000000000000000000000000000000000600052603260045260246000fd5b906000526020600020906008020160040154346040518363ffffffff1660e01b815260040161095e929190611d58565b604080518083038186803b15801561097557600080fd5b505afa158015610989573d6000803e3d6000fd5b505050506040513d601f19601f820116820180604052508101906109ad9190611771565b9150915060003490506000821180156109f35750600073ffffffffffffffffffffffffffffffffffffffff168373ffffffffffffffffffffffffffffffffffffffff1614155b15610a4e578134610a049190611e93565b90508273ffffffffffffffffffffffffffffffffffffffff166108fc839081150290604051600060405180830381858888f19350505050158015610a4c573d6000803e3d6000fd5b505b60008581548110610a88577f4e487b7100000000000000000000000000000000000000000000000000000000600052603260045260246000fd5b906000526020600020906008020160060160009054906101000a900473ffffffffffffffffffffffffffffffffffffffff1673ffffffffffffffffffffffffffffffffffffffff166108fc829081150290604051600060405180830381858888f19350505050158015610aff573d6000803e3d6000fd5b50600060016000808881548110610b3f577f4e487b7100000000000000000000000000000000000000000000000000000000600052603260045260246000fd5b906000526020600020906008020160030160009054906101000a900473ffffffffffffffffffffffffffffffffffffffff1673ffffffffffffffffffffffffffffffffffffffff1673ffffffffffffffffffffffffffffffffffffffff1681526020019081526020016000206000808881548110610be6577f4e487b7100000000000000000000000000000000000000000000000000000000600052603260045260246000fd5b906000526020600020906008020160040154815260200190815260200160002060006101000a81548160ff02191690831515021790555060008590505b6001600080549050610c359190611e93565b811015610e9d576000600182610c4b9190611e3d565b81548110610c82577f4e487b7100000000000000000000000000000000000000000000000000000000600052603260045260246000fd5b906000526020600020906008020160008281548110610cca577f4e487b7100000000000000000000000000000000000000000000000000000000600052603260045260246000fd5b90600052602060002090600802016000820181600001908054610cec90611f99565b610cf7929190611551565b506001820181600101908054610d0c90611f99565b610d17929190611551565b50600282015481600201556003820160009054906101000a900473ffffffffffffffffffffffffffffffffffffffff168160030160006101000a81548173ffffffffffffffffffffffffffffffffffffffff021916908373ffffffffffffffffffffffffffffffffffffffff16021790555060048201548160040155600582015481600501556006820160009054906101000a900473ffffffffffffffffffffffffffffffffffffffff168160060160006101000a81548173ffffffffffffffffffffffffffffffffffffffff021916908373ffffffffffffffffffffffffffffffffffffffff1602179055506007820181600701908054610e1890611f99565b610e23929190611551565b50905050600160008281548110610e63577f4e487b7100000000000000000000000000000000000000000000000000000000600052603260045260246000fd5b90600052602060002090600802016002016000828254610e839190611e93565b925050819055508080610e9590611ffc565b915050610c23565b506000805480610ed6577f4e487b7100000000000000000000000000000000000000000000000000000000600052603160045260246000fd5b600190038181906000526020600020906008020160008082016000610efb91906115de565b600182016000610f0b91906115de565b60028201600090556003820160006101000a81549073ffffffffffffffffffffffffffffffffffffffff0219169055600482016000905560058201600090556006820160006101000a81549073ffffffffffffffffffffffffffffffffffffffff0219169055600782016000610f8191906115de565b505090555050505050565b60606000805480602002602001604051908101604052809291908181526020016000905b82821015611263578382906000526020600020906008020160405180610100016040529081600082018054610fe490611f99565b80601f016020809104026020016040519081016040528092919081815260200182805461101090611f99565b801561105d5780601f106110325761010080835404028352916020019161105d565b820191906000526020600020905b81548152906001019060200180831161104057829003601f168201915b5050505050815260200160018201805461107690611f99565b80601f01602080910402602001604051908101604052809291908181526020018280546110a290611f99565b80156110ef5780601f106110c4576101008083540402835291602001916110ef565b820191906000526020600020905b8154815290600101906020018083116110d257829003601f168201915b50505050508152602001600282015481526020016003820160009054906101000a900473ffffffffffffffffffffffffffffffffffffffff1673ffffffffffffffffffffffffffffffffffffffff1673ffffffffffffffffffffffffffffffffffffffff16815260200160048201548152602001600582015481526020016006820160009054906101000a900473ffffffffffffffffffffffffffffffffffffffff1673ffffffffffffffffffffffffffffffffffffffff1673ffffffffffffffffffffffffffffffffffffffff1681526020016007820180546111d290611f99565b80601f01602080910402602001604051908101604052809291908181526020018280546111fe90611f99565b801561124b5780601f106112205761010080835404028352916020019161124b565b820191906000526020600020905b81548152906001019060200180831161122e57829003601f168201915b50505050508152505081526020019060010190610fb0565b50505050905090565b6000818154811061127c57600080fd5b906000526020600020906008020160009150905080600001805461129f90611f99565b80601f01602080910402602001604051908101604052809291908181526020018280546112cb90611f99565b80156113185780601f106112ed57610100808354040283529160200191611318565b820191906000526020600020905b8154815290600101906020018083116112fb57829003601f168201915b50505050509080600101805461132d90611f99565b80601f016020809104026020016040519081016040528092919081815260200182805461135990611f99565b80156113a65780601f1061137b576101008083540402835291602001916113a6565b820191906000526020600020905b81548152906001019060200180831161138957829003601f168201915b5050505050908060020154908060030160009054906101000a900473ffffffffffffffffffffffffffffffffffffffff16908060040154908060050154908060060160009054906101000a900473ffffffffffffffffffffffffffffffffffffffff169080600701805461141990611f99565b80601f016020809104026020016040519081016040528092919081815260200182805461144590611f99565b80156114925780601f1061146757610100808354040283529160200191611492565b820191906000526020600020905b81548152906001019060200180831161147557829003601f168201915b5050505050905088565b60016020528160005260406000206020528060005260406000206000915091509054906101000a900460ff1681565b8280546114d790611f99565b90600052602060002090601f0160209004810192826114f95760008555611540565b82601f1061151257805160ff1916838001178555611540565b82800160010185558215611540579182015b8281111561153f578251825591602001919060010190611524565b5b50905061154d919061161e565b5090565b82805461155d90611f99565b90600052602060002090601f01602090048101928261157f57600085556115cd565b82601f1061159057805485556115cd565b828001600101855582156115cd57600052602060002091601f016020900482015b828111156115cc5782548255916001019190600101906115b1565b5b5090506115da919061161e565b5090565b5080546115ea90611f99565b6000825580601f106115fc575061161b565b601f01602090049060005260206000209081019061161a919061161e565b5b50565b5b8082111561163757600081600090555060010161161f565b5090565b600061164e61164984611da6565b611d81565b90508281526020810184848401111561166657600080fd5b611671848285611f57565b509392505050565b6000813590506116888161221f565b92915050565b60008151905061169d8161221f565b92915050565b6000815190506116b281612236565b92915050565b600082601f8301126116c957600080fd5b81356116d984826020860161163b565b91505092915050565b6000813590506116f18161224d565b92915050565b6000815190506117068161224d565b92915050565b60006020828403121561171e57600080fd5b600061172c8482850161168e565b91505092915050565b6000806040838503121561174857600080fd5b600061175685828601611679565b9250506020611767858286016116e2565b9150509250929050565b6000806040838503121561178457600080fd5b60006117928582860161168e565b92505060206117a3858286016116f7565b9150509250929050565b6000602082840312156117bf57600080fd5b60006117cd848285016116a3565b91505092915050565b60008060008060008060c087890312156117ef57600080fd5b600087013567ffffffffffffffff81111561180957600080fd5b61181589828a016116b8565b965050602087013567ffffffffffffffff81111561183257600080fd5b61183e89828a016116b8565b955050604061184f89828a016116e2565b945050606061186089828a016116e2565b935050608061187189828a01611679565b92505060a087013567ffffffffffffffff81111561188e57600080fd5b61189a89828a016116b8565b9150509295509295509295565b6000602082840312156118b957600080fd5b60006118c7848285016116e2565b91505092915050565b60006118dc8383611ab1565b905092915050565b6118ed81611f21565b82525050565b6118fc81611ed9565b82525050565b61190b81611ed9565b82525050565b61191a81611ec7565b82525050565b61192981611ec7565b82525050565b600061193a82611de7565b6119448185611e0a565b93508360208202850161195685611dd7565b8060005b85811015611992578484038952815161197385826118d0565b945061197e83611dfd565b925060208a0199505060018101905061195a565b50829750879550505050505092915050565b6119ad81611eeb565b82525050565b60006119be82611df2565b6119c88185611e1b565b93506119d8818560208601611f66565b6119e1816120d2565b840191505092915050565b60006119f782611df2565b611a018185611e2c565b9350611a11818560208601611f66565b611a1a816120d2565b840191505092915050565b6000611a32602483611e2c565b9150611a3d826120e3565b604082019050919050565b6000611a55604083611e2c565b9150611a6082612132565b604082019050919050565b6000611a78603183611e2c565b9150611a8382612181565b604082019050919050565b6000611a9b602d83611e2c565b9150611aa6826121d0565b604082019050919050565b6000610100830160008301518482036000860152611acf82826119b3565b91505060208301518482036020860152611ae982826119b3565b9150506040830151611afe6040860182611b6f565b506060830151611b116060860182611911565b506080830151611b246080860182611b6f565b5060a0830151611b3760a0860182611b6f565b5060c0830151611b4a60c08601826118f3565b5060e083015184820360e0860152611b6282826119b3565b9150508091505092915050565b611b7881611f17565b82525050565b611b8781611f17565b82525050565b6000606082019050611ba260008301866118e4565b611baf6020830185611920565b611bbc6040830184611b7e565b949350505050565b6000604082019050611bd96000830185611920565b611be66020830184611920565b9392505050565b60006020820190508181036000830152611c07818461192f565b905092915050565b6000602082019050611c2460008301846119a4565b92915050565b6000610100820190508181036000830152611c45818b6119ec565b90508181036020830152611c59818a6119ec565b9050611c686040830189611b7e565b611c756060830188611920565b611c826080830187611b7e565b611c8f60a0830186611b7e565b611c9c60c0830185611902565b81810360e0830152611cae81846119ec565b90509998505050505050505050565b60006020820190508181036000830152611cd681611a25565b9050919050565b60006020820190508181036000830152611cf681611a48565b9050919050565b60006020820190508181036000830152611d1681611a6b565b9050919050565b60006020820190508181036000830152611d3681611a8e565b9050919050565b6000602082019050611d526000830184611b7e565b92915050565b6000604082019050611d6d6000830185611b7e565b611d7a6020830184611b7e565b9392505050565b6000611d8b611d9c565b9050611d978282611fcb565b919050565b6000604051905090565b600067ffffffffffffffff821115611dc157611dc06120a3565b5b611dca826120d2565b9050602081019050919050565b6000819050602082019050919050565b600081519050919050565b600081519050919050565b6000602082019050919050565b600082825260208201905092915050565b600082825260208201905092915050565b600082825260208201905092915050565b6000611e4882611f17565b9150611e5383611f17565b9250827fffffffffffffffffffffffffffffffffffffffffffffffffffffffffffffffff03821115611e8857611e87612045565b5b828201905092915050565b6000611e9e82611f17565b9150611ea983611f17565b925082821015611ebc57611ebb612045565b5b828203905092915050565b6000611ed282611ef7565b9050919050565b6000611ee482611ef7565b9050919050565b60008115159050919050565b600073ffffffffffffffffffffffffffffffffffffffff82169050919050565b6000819050919050565b6000611f2c82611f33565b9050919050565b6000611f3e82611f45565b9050919050565b6000611f5082611ef7565b9050919050565b82818337600083830152505050565b60005b83811015611f84578082015181840152602081019050611f69565b83811115611f93576000848401525b50505050565b60006002820490506001821680611fb157607f821691505b60208210811415611fc557611fc4612074565b5b50919050565b611fd4826120d2565b810181811067ffffffffffffffff82111715611ff357611ff26120a3565b5b80604052505050565b600061200782611f17565b91507fffffffffffffffffffffffffffffffffffffffffffffffffffffffffffffffff82141561203a57612039612045565b5b600182019050919050565b7f4e487b7100000000000000000000000000000000000000000000000000000000600052601160045260246000fd5b7f4e487b7100000000000000000000000000000000000000000000000000000000600052602260045260246000fd5b7f4e487b7100000000000000000000000000000000000000000000000000000000600052604160045260246000fd5b6000601f19601f8301169050919050565b7f4d61726b6574506c6163653a20546f6b656e20697320616c7265616479206c6960008201527f7374656400000000000000000000000000000000000000000000000000000000602082015250565b7f4d61726b6574506c6163653a204e46544d61726b6574506c616365206973206e60008201527f6f742070726f766964656420617070726f76616c20746f207472616e73666572602082015250565b7f4d61726b6574506c6163653a20506c65617365207061792074686520616d6f7560008201527f6e7420657175616c20746f207072696365000000000000000000000000000000602082015250565b7f4d61726b6574506c6163653a2053656e646572206973206e6f7420746865206f60008201527f776e6572206f6620746f6b656e00000000000000000000000000000000000000602082015250565b61222881611ec7565b811461223357600080fd5b50565b61223f81611eeb565b811461224a57600080fd5b50565b61225681611f17565b811461226157600080fd5b5056fea26469706673582212205d4a90a8a352d09ed6c6aa5026b6b73e4154b1ac3f53118a42f3d16bedbdd07f64736f6c63430008010033",
  "linkReferences": {},
  "deployedLinkReferences": {}
}