{
  "_format": "hh-sol-artifact-1",
  "contractName": "NFT",
  "sourceName": "src/contracts/NFT.sol",
  "abi": [
    {
      "inputs": [],
      "stateMutability": "nonpayable",
      "type": "constructor"
    },
    {
      "anonymous": false,
      "inputs": [
        {
          "indexed": true,
          "internalType": "address",
          "name": "owner",
          "type": "address"
        },
        {
          "indexed": true,
          "internalType": "address",
          "name": "approved",
          "type": "address"
        },
        {
          "indexed": true,
          "internalType": "uint256",
          "name": "tokenId",
          "type": "uint256"
        }
      ],
      "name": "Approval",
      "type": "event"
    },
    {
      "anonymous": false,
      "inputs": [
        {
          "indexed": true,
          "internalType": "address",
          "name": "owner",
          "type": "address"
        },
        {
          "indexed": true,
          "internalType": "address",
          "name": "operator",
          "type": "address"
        },
        {
          "indexed": false,
          "internalType": "bool",
          "name": "approved",
          "type": "bool"
        }
      ],
      "name": "ApprovalForAll",
      "type": "event"
    },
    {
      "anonymous": false,
      "inputs": [
        {
          "indexed": true,
          "internalType": "address",
          "name": "previousOwner",
          "type": "address"
        },
        {
          "indexed": true,
          "internalType": "address",
          "name": "newOwner",
          "type": "address"
        }
      ],
      "name": "OwnershipTransferred",
      "type": "event"
    },
    {
      "anonymous": false,
      "inputs": [
        {
          "indexed": true,
          "internalType": "address",
          "name": "from",
          "type": "address"
        },
        {
          "indexed": true,
          "internalType": "address",
          "name": "to",
          "type": "address"
        },
        {
          "indexed": true,
          "internalType": "uint256",
          "name": "tokenId",
          "type": "uint256"
        }
      ],
      "name": "Transfer",
      "type": "event"
    },
    {
      "inputs": [
        {
          "internalType": "uint256",
          "name": "",
          "type": "uint256"
        }
      ],
      "name": "_creators",
      "outputs": [
        {
          "internalType": "address",
          "name": "",
          "type": "address"
        }
      ],
      "stateMutability": "view",
      "type": "function"
    },
    {
      "inputs": [
        {
          "internalType": "address",
          "name": "to",
          "type": "address"
        },
        {
          "internalType": "uint256",
          "name": "tokenId",
          "type": "uint256"
        }
      ],
      "name": "approve",
      "outputs": [],
      "stateMutability": "nonpayable",
      "type": "function"
    },
    {
      "inputs": [
        {
          "internalType": "address",
          "name": "owner",
          "type": "address"
        }
      ],
      "name": "balanceOf",
      "outputs": [
        {
          "internalType": "uint256",
          "name": "",
          "type": "uint256"
        }
      ],
      "stateMutability": "view",
      "type": "function"
    },
    {
      "inputs": [
        {
          "internalType": "uint256",
          "name": "tokenId",
          "type": "uint256"
        }
      ],
      "name": "creatorOf",
      "outputs": [
        {
          "internalType": "address",
          "name": "",
          "type": "address"
        }
      ],
      "stateMutability": "view",
      "type": "function"
    },
    {
      "inputs": [
        {
          "internalType": "uint256",
          "name": "tokenId",
          "type": "uint256"
        }
      ],
      "name": "getApproved",
      "outputs": [
        {
          "internalType": "address",
          "name": "",
          "type": "address"
        }
      ],
      "stateMutability": "view",
      "type": "function"
    },
    {
      "inputs": [
        {
          "internalType": "address",
          "name": "owner",
          "type": "address"
        },
        {
          "internalType": "address",
          "name": "operator",
          "type": "address"
        }
      ],
      "name": "isApprovedForAll",
      "outputs": [
        {
          "internalType": "bool",
          "name": "",
          "type": "bool"
        }
      ],
      "stateMutability": "view",
      "type": "function"
    },
    {
      "inputs": [
        {
          "internalType": "string",
          "name": "uri",
          "type": "string"
        }
      ],
      "name": "mint",
      "outputs": [],
      "stateMutability": "nonpayable",
      "type": "function"
    },
    {
      "inputs": [],
      "name": "name",
      "outputs": [
        {
          "internalType": "string",
          "name": "",
          "type": "string"
        }
      ],
      "stateMutability": "view",
      "type": "function"
    },
    {
      "inputs": [],
      "name": "owner",
      "outputs": [
        {
          "internalType": "address",
          "name": "",
          "type": "address"
        }
      ],
      "stateMutability": "view",
      "type": "function"
    },
    {
      "inputs": [
        {
          "internalType": "uint256",
          "name": "tokenId",
          "type": "uint256"
        }
      ],
      "name": "ownerOf",
      "outputs": [
        {
          "internalType": "address",
          "name": "",
          "type": "address"
        }
      ],
      "stateMutability": "view",
      "type": "function"
    },
    {
      "inputs": [],
      "name": "renounceOwnership",
      "outputs": [],
      "stateMutability": "nonpayable",
      "type": "function"
    },
    {
      "inputs": [
        {
          "internalType": "uint256",
          "name": "_tokenId",
          "type": "uint256"
        },
        {
          "internalType": "uint256",
          "name": "_salePrice",
          "type": "uint256"
        }
      ],
      "name": "royaltyInfo",
      "outputs": [
        {
          "internalType": "address",
          "name": "",
          "type": "address"
        },
        {
          "internalType": "uint256",
          "name": "",
          "type": "uint256"
        }
      ],
      "stateMutability": "view",
      "type": "function"
    },
    {
      "inputs": [
        {
          "internalType": "address",
          "name": "to",
          "type": "address"
        },
        {
          "internalType": "string",
          "name": "uri",
          "type": "string"
        }
      ],
      "name": "safeMint",
      "outputs": [],
      "stateMutability": "nonpayable",
      "type": "function"
    },
    {
      "inputs": [
        {
          "internalType": "address",
          "name": "from",
          "type": "address"
        },
        {
          "internalType": "address",
          "name": "to",
          "type": "address"
        },
        {
          "internalType": "uint256",
          "name": "tokenId",
          "type": "uint256"
        }
      ],
      "name": "safeTransferFrom",
      "outputs": [],
      "stateMutability": "nonpayable",
      "type": "function"
    },
    {
      "inputs": [
        {
          "internalType": "address",
          "name": "from",
          "type": "address"
        },
        {
          "internalType": "address",
          "name": "to",
          "type": "address"
        },
        {
          "internalType": "uint256",
          "name": "tokenId",
          "type": "uint256"
        },
        {
          "internalType": "bytes",
          "name": "data",
          "type": "bytes"
        }
      ],
      "name": "safeTransferFrom",
      "outputs": [],
      "stateMutability": "nonpayable",
      "type": "function"
    },
    {
      "inputs": [
        {
          "internalType": "address",
          "name": "operator",
          "type": "address"
        },
        {
          "internalType": "bool",
          "name": "approved",
          "type": "bool"
        }
      ],
      "name": "setApprovalForAll",
      "outputs": [],
      "stateMutability": "nonpayable",
      "type": "function"
    },
    {
      "inputs": [
        {
          "internalType": "address",
          "name": "receiver",
          "type": "address"
        },
        {
          "internalType": "uint96",
          "name": "feeNumerator",
          "type": "uint96"
        }
      ],
      "name": "setDefaultRoyalty",
      "outputs": [],
      "stateMutability": "nonpayable",
      "type": "function"
    },
    {
      "inputs": [
        {
          "internalType": "uint256",
          "name": "tokenId",
          "type": "uint256"
        },
        {
          "internalType": "address",
          "name": "receiver",
          "type": "address"
        },
        {
          "internalType": "uint96",
          "name": "feeNumerator",
          "type": "uint96"
        }
      ],
      "name": "setTokenRoyalty",
      "outputs": [],
      "stateMutability": "nonpayable",
      "type": "function"
    },
    {
      "inputs": [
        {
          "internalType": "bytes4",
          "name": "interfaceId",
          "type": "bytes4"
        }
      ],
      "name": "supportsInterface",
      "outputs": [
        {
          "internalType": "bool",
          "name": "",
          "type": "bool"
        }
      ],
      "stateMutability": "view",
      "type": "function"
    },
    {
      "inputs": [],
      "name": "symbol",
      "outputs": [
        {
          "internalType": "string",
          "name": "",
          "type": "string"
        }
      ],
      "stateMutability": "view",
      "type": "function"
    },
    {
      "inputs": [
        {
          "internalType": "uint256",
          "name": "index",
          "type": "uint256"
        }
      ],
      "name": "tokenByIndex",
      "outputs": [
        {
          "internalType": "uint256",
          "name": "",
          "type": "uint256"
        }
      ],
      "stateMutability": "view",
      "type": "function"
    },
    {
      "inputs": [
        {
          "internalType": "address",
          "name": "owner",
          "type": "address"
        },
        {
          "internalType": "uint256",
          "name": "index",
          "type": "uint256"
        }
      ],
      "name": "tokenOfOwnerByIndex",
      "outputs": [
        {
          "internalType": "uint256",
          "name": "",
          "type": "uint256"
        }
      ],
      "stateMutability": "view",
      "type": "function"
    },
    {
      "inputs": [
        {
          "internalType": "uint256",
          "name": "tokenId",
          "type": "uint256"
        }
      ],
      "name": "tokenURI",
      "outputs": [
        {
          "internalType": "string",
          "name": "",
          "type": "string"
        }
      ],
      "stateMutability": "view",
      "type": "function"
    },
    {
      "inputs": [],
      "name": "totalSupply",
      "outputs": [
        {
          "internalType": "uint256",
          "name": "",
          "type": "uint256"
        }
      ],
      "stateMutability": "view",
      "type": "function"
    },
    {
      "inputs": [
        {
          "internalType": "address",
          "name": "from",
          "type": "address"
        },
        {
          "internalType": "address",
          "name": "to",
          "type": "address"
        },
        {
          "internalType": "uint256",
          "name": "tokenId",
          "type": "uint256"
        }
      ],
      "name": "transferFrom",
      "outputs": [],
      "stateMutability": "nonpayable",
      "type": "function"
    },
    {
      "inputs": [
        {
          "internalType": "address",
          "name": "newOwner",
          "type": "address"
        }
      ],
      "name": "transferOwnership",
      "outputs": [],
      "stateMutability": "nonpayable",
      "type": "function"
    }
  ],
  "bytecode": "0x60806040523480156200001157600080fd5b506040518060400160405280600481526020017f5a4e4654000000000000000000000000000000000000000000000000000000008152506040518060400160405280600381526020017f5a46540000000000000000000000000000000000000000000000000000000000815250816002908051906020019062000096929190620001a6565b508060039080519060200190620000af929190620001a6565b505050620000d2620000c6620000d860201b60201c565b620000e060201b60201c565b620002bb565b600033905090565b6000600d60009054906101000a900473ffffffffffffffffffffffffffffffffffffffff16905081600d60006101000a81548173ffffffffffffffffffffffffffffffffffffffff021916908373ffffffffffffffffffffffffffffffffffffffff1602179055508173ffffffffffffffffffffffffffffffffffffffff168173ffffffffffffffffffffffffffffffffffffffff167f8be0079c531659141344cd1fd0a4f28419497f9722a3daafe3b4186f6b6457e060405160405180910390a35050565b828054620001b49062000256565b90600052602060002090601f016020900481019282620001d8576000855562000224565b82601f10620001f357805160ff191683800117855562000224565b8280016001018555821562000224579182015b828111156200022357825182559160200191906001019062000206565b5b50905062000233919062000237565b5090565b5b808211156200025257600081600090555060010162000238565b5090565b600060028204905060018216806200026f57607f821691505b602082108114156200028657620002856200028c565b5b50919050565b7f4e487b7100000000000000000000000000000000000000000000000000000000600052602260045260246000fd5b61416180620002cb6000396000f3fe608060405234801561001057600080fd5b506004361061018e5760003560e01c80635944c753116100de578063a22cb46511610097578063d204c45e11610071578063d204c45e146104ba578063d85d3d27146104d6578063e985e9c5146104f2578063f2fde38b146105225761018e565b8063a22cb46514610452578063b88d4fde1461046e578063c87b56dd1461048a5761018e565b80635944c753146103905780636352211e146103ac57806370a08231146103dc578063715018a61461040c5780638da5cb5b1461041657806395d89b41146104345761018e565b806323b872dd1161014b57806342842e0e1161012557806342842e0e146102e45780634816edf4146103005780634f6ccce714610330578063589a1743146103605761018e565b806323b872dd146102675780632a55205a146102835780632f745c59146102b45761018e565b806301ffc9a71461019357806304634d8d146101c357806306fdde03146101df578063081812fc146101fd578063095ea7b31461022d57806318160ddd14610249575b600080fd5b6101ad60048036038101906101a89190612ee0565b61053e565b6040516101ba9190613467565b60405180910390f35b6101dd60048036038101906101d89190612ea4565b610550565b005b6101e7610566565b6040516101f49190613482565b60405180910390f35b61021760048036038101906102129190612f73565b6105f8565b60405161022491906133d7565b60405180910390f35b61024760048036038101906102429190612e68565b61063e565b005b610251610756565b60405161025e9190613724565b60405180910390f35b610281600480360381019061027c9190612d0e565b610763565b005b61029d60048036038101906102989190612feb565b6107c3565b6040516102ab92919061343e565b60405180910390f35b6102ce60048036038101906102c99190612e68565b6109ae565b6040516102db9190613724565b60405180910390f35b6102fe60048036038101906102f99190612d0e565b610a53565b005b61031a60048036038101906103159190612f73565b610a73565b60405161032791906133d7565b60405180910390f35b61034a60048036038101906103459190612f73565b610aa6565b6040516103579190613724565b60405180910390f35b61037a60048036038101906103759190612f73565b610b3d565b60405161038791906133d7565b60405180910390f35b6103aa60048036038101906103a59190612f9c565b610b7a565b005b6103c660048036038101906103c19190612f73565b610c2b565b6040516103d391906133d7565b60405180910390f35b6103f660048036038101906103f19190612ca9565b610cdd565b6040516104039190613724565b60405180910390f35b610414610d95565b005b61041e610da9565b60405161042b91906133d7565b60405180910390f35b61043c610dd3565b6040516104499190613482565b60405180910390f35b61046c60048036038101906104679190612dd8565b610e65565b005b61048860048036038101906104839190612d5d565b610e7b565b005b6104a4600480360381019061049f9190612f73565b610edd565b6040516104b19190613482565b60405180910390f35b6104d460048036038101906104cf9190612e14565b610eef565b005b6104f060048036038101906104eb9190612f32565b610f7a565b005b61050c60048036038101906105079190612cd2565b610ffc565b6040516105199190613467565b60405180910390f35b61053c60048036038101906105379190612ca9565b611090565b005b600061054982611114565b9050919050565b610558611126565b61056282826111a4565b5050565b606060028054610575906139ec565b80601f01602080910402602001604051908101604052809291908181526020018280546105a1906139ec565b80156105ee5780601f106105c3576101008083540402835291602001916105ee565b820191906000526020600020905b8154815290600101906020018083116105d157829003601f168201915b5050505050905090565b600061060382611339565b6006600083815260200190815260200160002060009054906101000a900473ffffffffffffffffffffffffffffffffffffffff169050919050565b600061064982610c2b565b90508073ffffffffffffffffffffffffffffffffffffffff168373ffffffffffffffffffffffffffffffffffffffff1614156106ba576040517f08c379a00000000000000000000000000000000000000000000000000000000081526004016106b190613664565b60405180910390fd5b8073ffffffffffffffffffffffffffffffffffffffff166106d9611384565b73ffffffffffffffffffffffffffffffffffffffff161480610708575061070781610702611384565b610ffc565b5b610747576040517f08c379a000000000000000000000000000000000000000000000000000000000815260040161073e906135e4565b60405180910390fd5b610751838361138c565b505050565b6000600a80549050905090565b61077461076e611384565b82611445565b6107b3576040517f08c379a00000000000000000000000000000000000000000000000000000000081526004016107aa906136e4565b60405180910390fd5b6107be8383836114da565b505050565b6000806000600160008681526020019081526020016000206040518060400160405290816000820160009054906101000a900473ffffffffffffffffffffffffffffffffffffffff1673ffffffffffffffffffffffffffffffffffffffff1673ffffffffffffffffffffffffffffffffffffffff1681526020016000820160149054906101000a90046bffffffffffffffffffffffff166bffffffffffffffffffffffff166bffffffffffffffffffffffff16815250509050600073ffffffffffffffffffffffffffffffffffffffff16816000015173ffffffffffffffffffffffffffffffffffffffff1614156109595760006040518060400160405290816000820160009054906101000a900473ffffffffffffffffffffffffffffffffffffffff1673ffffffffffffffffffffffffffffffffffffffff1673ffffffffffffffffffffffffffffffffffffffff1681526020016000820160149054906101000a90046bffffffffffffffffffffffff166bffffffffffffffffffffffff166bffffffffffffffffffffffff168152505090505b6000610963611741565b6bffffffffffffffffffffffff1682602001516bffffffffffffffffffffffff168661098f9190613890565b610999919061385f565b90508160000151819350935050509250929050565b60006109b983610cdd565b82106109fa576040517f08c379a00000000000000000000000000000000000000000000000000000000081526004016109f1906134a4565b60405180910390fd5b600860008473ffffffffffffffffffffffffffffffffffffffff1673ffffffffffffffffffffffffffffffffffffffff168152602001908152602001600020600083815260200190815260200160002054905092915050565b610a6e83838360405180602001604052806000815250610e7b565b505050565b600f6020528060005260406000206000915054906101000a900473ffffffffffffffffffffffffffffffffffffffff1681565b6000610ab0610756565b8210610af1576040517f08c379a0000000000000000000000000000000000000000000000000000000008152600401610ae8906136a4565b60405180910390fd5b600a8281548110610b2b577f4e487b7100000000000000000000000000000000000000000000000000000000600052603260045260246000fd5b90600052602060002001549050919050565b6000600f600083815260200190815260200160002060009054906101000a900473ffffffffffffffffffffffffffffffffffffffff169050919050565b600f600084815260200190815260200160002060009054906101000a900473ffffffffffffffffffffffffffffffffffffffff1673ffffffffffffffffffffffffffffffffffffffff163373ffffffffffffffffffffffffffffffffffffffff1614610c1b576040517f08c379a0000000000000000000000000000000000000000000000000000000008152600401610c12906135c4565b60405180910390fd5b610c2683838361174b565b505050565b6000806004600084815260200190815260200160002060009054906101000a900473ffffffffffffffffffffffffffffffffffffffff169050600073ffffffffffffffffffffffffffffffffffffffff168173ffffffffffffffffffffffffffffffffffffffff161415610cd4576040517f08c379a0000000000000000000000000000000000000000000000000000000008152600401610ccb90613644565b60405180910390fd5b80915050919050565b60008073ffffffffffffffffffffffffffffffffffffffff168273ffffffffffffffffffffffffffffffffffffffff161415610d4e576040517f08c379a0000000000000000000000000000000000000000000000000000000008152600401610d4590613584565b60405180910390fd5b600560008373ffffffffffffffffffffffffffffffffffffffff1673ffffffffffffffffffffffffffffffffffffffff168152602001908152602001600020549050919050565b610d9d611126565b610da760006118f3565b565b6000600d60009054906101000a900473ffffffffffffffffffffffffffffffffffffffff16905090565b606060038054610de2906139ec565b80601f0160208091040260200160405190810160405280929190818152602001828054610e0e906139ec565b8015610e5b5780601f10610e3057610100808354040283529160200191610e5b565b820191906000526020600020905b815481529060010190602001808311610e3e57829003601f168201915b5050505050905090565b610e77610e70611384565b83836119b9565b5050565b610e8c610e86611384565b83611445565b610ecb576040517f08c379a0000000000000000000000000000000000000000000000000000000008152600401610ec2906136e4565b60405180910390fd5b610ed784848484611b26565b50505050565b6060610ee882611b82565b9050919050565b610ef7611126565b6000610f03600e611c95565b9050610f0f600e611ca3565b610f198382611cb9565b610f238183611cd7565b82600f600083815260200190815260200160002060006101000a81548173ffffffffffffffffffffffffffffffffffffffff021916908373ffffffffffffffffffffffffffffffffffffffff160217905550505050565b6000610f86600e611c95565b9050610f92600e611ca3565b610f9c3382611cb9565b610fa68183611cd7565b33600f600083815260200190815260200160002060006101000a81548173ffffffffffffffffffffffffffffffffffffffff021916908373ffffffffffffffffffffffffffffffffffffffff1602179055505050565b6000600760008473ffffffffffffffffffffffffffffffffffffffff1673ffffffffffffffffffffffffffffffffffffffff16815260200190815260200160002060008373ffffffffffffffffffffffffffffffffffffffff1673ffffffffffffffffffffffffffffffffffffffff16815260200190815260200160002060009054906101000a900460ff16905092915050565b611098611126565b600073ffffffffffffffffffffffffffffffffffffffff168173ffffffffffffffffffffffffffffffffffffffff161415611108576040517f08c379a00000000000000000000000000000000000000000000000000000000081526004016110ff906134e4565b60405180910390fd5b611111816118f3565b50565b600061111f82611d4b565b9050919050565b61112e611384565b73ffffffffffffffffffffffffffffffffffffffff1661114c610da9565b73ffffffffffffffffffffffffffffffffffffffff16146111a2576040517f08c379a000000000000000000000000000000000000000000000000000000000815260040161119990613624565b60405180910390fd5b565b6111ac611741565b6bffffffffffffffffffffffff16816bffffffffffffffffffffffff16111561120a576040517f08c379a0000000000000000000000000000000000000000000000000000000008152600401611201906136c4565b60405180910390fd5b600073ffffffffffffffffffffffffffffffffffffffff168273ffffffffffffffffffffffffffffffffffffffff16141561127a576040517f08c379a000000000000000000000000000000000000000000000000000000000815260040161127190613704565b60405180910390fd5b60405180604001604052808373ffffffffffffffffffffffffffffffffffffffff168152602001826bffffffffffffffffffffffff168152506000808201518160000160006101000a81548173ffffffffffffffffffffffffffffffffffffffff021916908373ffffffffffffffffffffffffffffffffffffffff16021790555060208201518160000160146101000a8154816bffffffffffffffffffffffff02191690836bffffffffffffffffffffffff1602179055509050505050565b61134281611dc5565b611381576040517f08c379a000000000000000000000000000000000000000000000000000000000815260040161137890613644565b60405180910390fd5b50565b600033905090565b816006600083815260200190815260200160002060006101000a81548173ffffffffffffffffffffffffffffffffffffffff021916908373ffffffffffffffffffffffffffffffffffffffff160217905550808273ffffffffffffffffffffffffffffffffffffffff166113ff83610c2b565b73ffffffffffffffffffffffffffffffffffffffff167f8c5be1e5ebec7d5bd14f71427d1e84f3dd0314c0f7b2291e5b200ac8c7c3b92560405160405180910390a45050565b60008061145183610c2b565b90508073ffffffffffffffffffffffffffffffffffffffff168473ffffffffffffffffffffffffffffffffffffffff16148061149357506114928185610ffc565b5b806114d157508373ffffffffffffffffffffffffffffffffffffffff166114b9846105f8565b73ffffffffffffffffffffffffffffffffffffffff16145b91505092915050565b8273ffffffffffffffffffffffffffffffffffffffff166114fa82610c2b565b73ffffffffffffffffffffffffffffffffffffffff1614611550576040517f08c379a000000000000000000000000000000000000000000000000000000000815260040161154790613504565b60405180910390fd5b600073ffffffffffffffffffffffffffffffffffffffff168273ffffffffffffffffffffffffffffffffffffffff1614156115c0576040517f08c379a00000000000000000000000000000000000000000000000000000000081526004016115b790613544565b60405180910390fd5b6115cb838383611e31565b6115d660008261138c565b6001600560008573ffffffffffffffffffffffffffffffffffffffff1673ffffffffffffffffffffffffffffffffffffffff168152602001908152602001600020600082825461162691906138ea565b925050819055506001600560008473ffffffffffffffffffffffffffffffffffffffff1673ffffffffffffffffffffffffffffffffffffffff168152602001908152602001600020600082825461167d9190613809565b92505081905550816004600083815260200190815260200160002060006101000a81548173ffffffffffffffffffffffffffffffffffffffff021916908373ffffffffffffffffffffffffffffffffffffffff160217905550808273ffffffffffffffffffffffffffffffffffffffff168473ffffffffffffffffffffffffffffffffffffffff167fddf252ad1be2c89b69c2b068fc378daa952ba7f163c4a11628f55a4df523b3ef60405160405180910390a461173c838383611e41565b505050565b6000612710905090565b611753611741565b6bffffffffffffffffffffffff16816bffffffffffffffffffffffff1611156117b1576040517f08c379a00000000000000000000000000000000000000000000000000000000081526004016117a8906136c4565b60405180910390fd5b600073ffffffffffffffffffffffffffffffffffffffff168273ffffffffffffffffffffffffffffffffffffffff161415611821576040517f08c379a000000000000000000000000000000000000000000000000000000000815260040161181890613684565b60405180910390fd5b60405180604001604052808373ffffffffffffffffffffffffffffffffffffffff168152602001826bffffffffffffffffffffffff168152506001600085815260200190815260200160002060008201518160000160006101000a81548173ffffffffffffffffffffffffffffffffffffffff021916908373ffffffffffffffffffffffffffffffffffffffff16021790555060208201518160000160146101000a8154816bffffffffffffffffffffffff02191690836bffffffffffffffffffffffff160217905550905050505050565b6000600d60009054906101000a900473ffffffffffffffffffffffffffffffffffffffff16905081600d60006101000a81548173ffffffffffffffffffffffffffffffffffffffff021916908373ffffffffffffffffffffffffffffffffffffffff1602179055508173ffffffffffffffffffffffffffffffffffffffff168173ffffffffffffffffffffffffffffffffffffffff167f8be0079c531659141344cd1fd0a4f28419497f9722a3daafe3b4186f6b6457e060405160405180910390a35050565b8173ffffffffffffffffffffffffffffffffffffffff168373ffffffffffffffffffffffffffffffffffffffff161415611a28576040517f08c379a0000000000000000000000000000000000000000000000000000000008152600401611a1f90613564565b60405180910390fd5b80600760008573ffffffffffffffffffffffffffffffffffffffff1673ffffffffffffffffffffffffffffffffffffffff16815260200190815260200160002060008473ffffffffffffffffffffffffffffffffffffffff1673ffffffffffffffffffffffffffffffffffffffff16815260200190815260200160002060006101000a81548160ff0219169083151502179055508173ffffffffffffffffffffffffffffffffffffffff168373ffffffffffffffffffffffffffffffffffffffff167f17307eab39ab6107e8899845ad3d59bd9653f200f220920489ca2b5937696c3183604051611b199190613467565b60405180910390a3505050565b611b318484846114da565b611b3d84848484611e46565b611b7c576040517f08c379a0000000000000000000000000000000000000000000000000000000008152600401611b73906134c4565b60405180910390fd5b50505050565b6060611b8d82611339565b6000600c60008481526020019081526020016000208054611bad906139ec565b80601f0160208091040260200160405190810160405280929190818152602001828054611bd9906139ec565b8015611c265780601f10611bfb57610100808354040283529160200191611c26565b820191906000526020600020905b815481529060010190602001808311611c0957829003601f168201915b505050505090506000611c37611fdd565b9050600081511415611c4d578192505050611c90565b600082511115611c82578082604051602001611c6a9291906133b3565b60405160208183030381529060405292505050611c90565b611c8b84611ff4565b925050505b919050565b600081600001549050919050565b6001816000016000828254019250508190555050565b611cd382826040518060200160405280600081525061205c565b5050565b611ce082611dc5565b611d1f576040517f08c379a0000000000000000000000000000000000000000000000000000000008152600401611d16906135a4565b60405180910390fd5b80600c60008481526020019081526020016000209080519060200190611d46929190612ab8565b505050565b60007f780e9d63000000000000000000000000000000000000000000000000000000007bffffffffffffffffffffffffffffffffffffffffffffffffffffffff1916827bffffffffffffffffffffffffffffffffffffffffffffffffffffffff19161480611dbe5750611dbd826120b7565b5b9050919050565b60008073ffffffffffffffffffffffffffffffffffffffff166004600084815260200190815260200160002060009054906101000a900473ffffffffffffffffffffffffffffffffffffffff1673ffffffffffffffffffffffffffffffffffffffff1614159050919050565b611e3c838383612199565b505050565b505050565b6000611e678473ffffffffffffffffffffffffffffffffffffffff166122ad565b15611fd0578373ffffffffffffffffffffffffffffffffffffffff1663150b7a02611e90611384565b8786866040518563ffffffff1660e01b8152600401611eb294939291906133f2565b602060405180830381600087803b158015611ecc57600080fd5b505af1925050508015611efd57506040513d601f19601f82011682018060405250810190611efa9190612f09565b60015b611f80573d8060008114611f2d576040519150601f19603f3d011682016040523d82523d6000602084013e611f32565b606091505b50600081511415611f78576040517f08c379a0000000000000000000000000000000000000000000000000000000008152600401611f6f906134c4565b60405180910390fd5b805181602001fd5b63150b7a0260e01b7bffffffffffffffffffffffffffffffffffffffffffffffffffffffff1916817bffffffffffffffffffffffffffffffffffffffffffffffffffffffff191614915050611fd5565b600190505b949350505050565b606060405180602001604052806000815250905090565b6060611fff82611339565b6000612009611fdd565b905060008151116120295760405180602001604052806000815250612054565b80612033846122d0565b6040516020016120449291906133b3565b6040516020818303038152906040525b915050919050565b612066838361247d565b6120736000848484611e46565b6120b2576040517f08c379a00000000000000000000000000000000000000000000000000000000081526004016120a9906134c4565b60405180910390fd5b505050565b60007f80ac58cd000000000000000000000000000000000000000000000000000000007bffffffffffffffffffffffffffffffffffffffffffffffffffffffff1916827bffffffffffffffffffffffffffffffffffffffffffffffffffffffff1916148061218257507f5b5e139f000000000000000000000000000000000000000000000000000000007bffffffffffffffffffffffffffffffffffffffffffffffffffffffff1916827bffffffffffffffffffffffffffffffffffffffffffffffffffffffff1916145b80612192575061219182612657565b5b9050919050565b6121a48383836126d1565b600073ffffffffffffffffffffffffffffffffffffffff168373ffffffffffffffffffffffffffffffffffffffff1614156121e7576121e2816126d6565b612226565b8173ffffffffffffffffffffffffffffffffffffffff168373ffffffffffffffffffffffffffffffffffffffff161461222557612224838261271f565b5b5b600073ffffffffffffffffffffffffffffffffffffffff168273ffffffffffffffffffffffffffffffffffffffff161415612269576122648161288c565b6122a8565b8273ffffffffffffffffffffffffffffffffffffffff168273ffffffffffffffffffffffffffffffffffffffff16146122a7576122a682826129cf565b5b5b505050565b6000808273ffffffffffffffffffffffffffffffffffffffff163b119050919050565b60606000821415612318576040518060400160405280600181526020017f30000000000000000000000000000000000000000000000000000000000000008152509050612478565b600082905060005b6000821461234a57808061233390613a4f565b915050600a82612343919061385f565b9150612320565b60008167ffffffffffffffff81111561238c577f4e487b7100000000000000000000000000000000000000000000000000000000600052604160045260246000fd5b6040519080825280601f01601f1916602001820160405280156123be5781602001600182028036833780820191505090505b5090505b60008514612471576001826123d791906138ea565b9150600a856123e69190613a98565b60306123f29190613809565b60f81b81838151811061242e577f4e487b7100000000000000000000000000000000000000000000000000000000600052603260045260246000fd5b60200101907effffffffffffffffffffffffffffffffffffffffffffffffffffffffffffff1916908160001a905350600a8561246a919061385f565b94506123c2565b8093505050505b919050565b600073ffffffffffffffffffffffffffffffffffffffff168273ffffffffffffffffffffffffffffffffffffffff1614156124ed576040517f08c379a00000000000000000000000000000000000000000000000000000000081526004016124e490613604565b60405180910390fd5b6124f681611dc5565b15612536576040517f08c379a000000000000000000000000000000000000000000000000000000000815260040161252d90613524565b60405180910390fd5b61254260008383611e31565b6001600560008473ffffffffffffffffffffffffffffffffffffffff1673ffffffffffffffffffffffffffffffffffffffff16815260200190815260200160002060008282546125929190613809565b92505081905550816004600083815260200190815260200160002060006101000a81548173ffffffffffffffffffffffffffffffffffffffff021916908373ffffffffffffffffffffffffffffffffffffffff160217905550808273ffffffffffffffffffffffffffffffffffffffff16600073ffffffffffffffffffffffffffffffffffffffff167fddf252ad1be2c89b69c2b068fc378daa952ba7f163c4a11628f55a4df523b3ef60405160405180910390a461265360008383611e41565b5050565b60007f2a55205a000000000000000000000000000000000000000000000000000000007bffffffffffffffffffffffffffffffffffffffffffffffffffffffff1916827bffffffffffffffffffffffffffffffffffffffffffffffffffffffff191614806126ca57506126c982612a4e565b5b9050919050565b505050565b600a80549050600b600083815260200190815260200160002081905550600a81908060018154018082558091505060019003906000526020600020016000909190919091505550565b6000600161272c84610cdd565b61273691906138ea565b905060006009600084815260200190815260200160002054905081811461281b576000600860008673ffffffffffffffffffffffffffffffffffffffff1673ffffffffffffffffffffffffffffffffffffffff168152602001908152602001600020600084815260200190815260200160002054905080600860008773ffffffffffffffffffffffffffffffffffffffff1673ffffffffffffffffffffffffffffffffffffffff168152602001908152602001600020600084815260200190815260200160002081905550816009600083815260200190815260200160002081905550505b6009600084815260200190815260200160002060009055600860008573ffffffffffffffffffffffffffffffffffffffff1673ffffffffffffffffffffffffffffffffffffffff16815260200190815260200160002060008381526020019081526020016000206000905550505050565b60006001600a805490506128a091906138ea565b90506000600b60008481526020019081526020016000205490506000600a83815481106128f6577f4e487b7100000000000000000000000000000000000000000000000000000000600052603260045260246000fd5b9060005260206000200154905080600a838154811061293e577f4e487b7100000000000000000000000000000000000000000000000000000000600052603260045260246000fd5b906000526020600020018190555081600b600083815260200190815260200160002081905550600b600085815260200190815260200160002060009055600a8054806129b3577f4e487b7100000000000000000000000000000000000000000000000000000000600052603160045260246000fd5b6001900381819060005260206000200160009055905550505050565b60006129da83610cdd565b905081600860008573ffffffffffffffffffffffffffffffffffffffff1673ffffffffffffffffffffffffffffffffffffffff168152602001908152602001600020600083815260200190815260200160002081905550806009600084815260200190815260200160002081905550505050565b60007f01ffc9a7000000000000000000000000000000000000000000000000000000007bffffffffffffffffffffffffffffffffffffffffffffffffffffffff1916827bffffffffffffffffffffffffffffffffffffffffffffffffffffffff1916149050919050565b828054612ac4906139ec565b90600052602060002090601f016020900481019282612ae65760008555612b2d565b82601f10612aff57805160ff1916838001178555612b2d565b82800160010185558215612b2d579182015b82811115612b2c578251825591602001919060010190612b11565b5b509050612b3a9190612b3e565b5090565b5b80821115612b57576000816000905550600101612b3f565b5090565b6000612b6e612b6984613764565b61373f565b905082815260208101848484011115612b8657600080fd5b612b918482856139aa565b509392505050565b6000612bac612ba784613795565b61373f565b905082815260208101848484011115612bc457600080fd5b612bcf8482856139aa565b509392505050565b600081359050612be6816140b8565b92915050565b600081359050612bfb816140cf565b92915050565b600081359050612c10816140e6565b92915050565b600081519050612c25816140e6565b92915050565b600082601f830112612c3c57600080fd5b8135612c4c848260208601612b5b565b91505092915050565b600082601f830112612c6657600080fd5b8135612c76848260208601612b99565b91505092915050565b600081359050612c8e816140fd565b92915050565b600081359050612ca381614114565b92915050565b600060208284031215612cbb57600080fd5b6000612cc984828501612bd7565b91505092915050565b60008060408385031215612ce557600080fd5b6000612cf385828601612bd7565b9250506020612d0485828601612bd7565b9150509250929050565b600080600060608486031215612d2357600080fd5b6000612d3186828701612bd7565b9350506020612d4286828701612bd7565b9250506040612d5386828701612c7f565b9150509250925092565b60008060008060808587031215612d7357600080fd5b6000612d8187828801612bd7565b9450506020612d9287828801612bd7565b9350506040612da387828801612c7f565b925050606085013567ffffffffffffffff811115612dc057600080fd5b612dcc87828801612c2b565b91505092959194509250565b60008060408385031215612deb57600080fd5b6000612df985828601612bd7565b9250506020612e0a85828601612bec565b9150509250929050565b60008060408385031215612e2757600080fd5b6000612e3585828601612bd7565b925050602083013567ffffffffffffffff811115612e5257600080fd5b612e5e85828601612c55565b9150509250929050565b60008060408385031215612e7b57600080fd5b6000612e8985828601612bd7565b9250506020612e9a85828601612c7f565b9150509250929050565b60008060408385031215612eb757600080fd5b6000612ec585828601612bd7565b9250506020612ed685828601612c94565b9150509250929050565b600060208284031215612ef257600080fd5b6000612f0084828501612c01565b91505092915050565b600060208284031215612f1b57600080fd5b6000612f2984828501612c16565b91505092915050565b600060208284031215612f4457600080fd5b600082013567ffffffffffffffff811115612f5e57600080fd5b612f6a84828501612c55565b91505092915050565b600060208284031215612f8557600080fd5b6000612f9384828501612c7f565b91505092915050565b600080600060608486031215612fb157600080fd5b6000612fbf86828701612c7f565b9350506020612fd086828701612bd7565b9250506040612fe186828701612c94565b9150509250925092565b60008060408385031215612ffe57600080fd5b600061300c85828601612c7f565b925050602061301d85828601612c7f565b9150509250929050565b6130308161391e565b82525050565b61303f81613930565b82525050565b6000613050826137c6565b61305a81856137dc565b935061306a8185602086016139b9565b61307381613b85565b840191505092915050565b6000613089826137d1565b61309381856137ed565b93506130a38185602086016139b9565b6130ac81613b85565b840191505092915050565b60006130c2826137d1565b6130cc81856137fe565b93506130dc8185602086016139b9565b80840191505092915050565b60006130f5602b836137ed565b915061310082613b96565b604082019050919050565b60006131186032836137ed565b915061312382613be5565b604082019050919050565b600061313b6026836137ed565b915061314682613c34565b604082019050919050565b600061315e6025836137ed565b915061316982613c83565b604082019050919050565b6000613181601c836137ed565b915061318c82613cd2565b602082019050919050565b60006131a46024836137ed565b91506131af82613cfb565b604082019050919050565b60006131c76019836137ed565b91506131d282613d4a565b602082019050919050565b60006131ea6029836137ed565b91506131f582613d73565b604082019050919050565b600061320d602e836137ed565b915061321882613dc2565b604082019050919050565b60006132306023836137ed565b915061323b82613e11565b604082019050919050565b6000613253603e836137ed565b915061325e82613e60565b604082019050919050565b60006132766020836137ed565b915061328182613eaf565b602082019050919050565b60006132996020836137ed565b91506132a482613ed8565b602082019050919050565b60006132bc6018836137ed565b91506132c782613f01565b602082019050919050565b60006132df6021836137ed565b91506132ea82613f2a565b604082019050919050565b6000613302601b836137ed565b915061330d82613f79565b602082019050919050565b6000613325602c836137ed565b915061333082613fa2565b604082019050919050565b6000613348602a836137ed565b915061335382613ff1565b604082019050919050565b600061336b602e836137ed565b915061337682614040565b604082019050919050565b600061338e6019836137ed565b91506133998261408f565b602082019050919050565b6133ad81613988565b82525050565b60006133bf82856130b7565b91506133cb82846130b7565b91508190509392505050565b60006020820190506133ec6000830184613027565b92915050565b60006080820190506134076000830187613027565b6134146020830186613027565b61342160408301856133a4565b81810360608301526134338184613045565b905095945050505050565b60006040820190506134536000830185613027565b61346060208301846133a4565b9392505050565b600060208201905061347c6000830184613036565b92915050565b6000602082019050818103600083015261349c818461307e565b905092915050565b600060208201905081810360008301526134bd816130e8565b9050919050565b600060208201905081810360008301526134dd8161310b565b9050919050565b600060208201905081810360008301526134fd8161312e565b9050919050565b6000602082019050818103600083015261351d81613151565b9050919050565b6000602082019050818103600083015261353d81613174565b9050919050565b6000602082019050818103600083015261355d81613197565b9050919050565b6000602082019050818103600083015261357d816131ba565b9050919050565b6000602082019050818103600083015261359d816131dd565b9050919050565b600060208201905081810360008301526135bd81613200565b9050919050565b600060208201905081810360008301526135dd81613223565b9050919050565b600060208201905081810360008301526135fd81613246565b9050919050565b6000602082019050818103600083015261361d81613269565b9050919050565b6000602082019050818103600083015261363d8161328c565b9050919050565b6000602082019050818103600083015261365d816132af565b9050919050565b6000602082019050818103600083015261367d816132d2565b9050919050565b6000602082019050818103600083015261369d816132f5565b9050919050565b600060208201905081810360008301526136bd81613318565b9050919050565b600060208201905081810360008301526136dd8161333b565b9050919050565b600060208201905081810360008301526136fd8161335e565b9050919050565b6000602082019050818103600083015261371d81613381565b9050919050565b600060208201905061373960008301846133a4565b92915050565b600061374961375a565b90506137558282613a1e565b919050565b6000604051905090565b600067ffffffffffffffff82111561377f5761377e613b56565b5b61378882613b85565b9050602081019050919050565b600067ffffffffffffffff8211156137b0576137af613b56565b5b6137b982613b85565b9050602081019050919050565b600081519050919050565b600081519050919050565b600082825260208201905092915050565b600082825260208201905092915050565b600081905092915050565b600061381482613988565b915061381f83613988565b9250827fffffffffffffffffffffffffffffffffffffffffffffffffffffffffffffffff0382111561385457613853613ac9565b5b828201905092915050565b600061386a82613988565b915061387583613988565b92508261388557613884613af8565b5b828204905092915050565b600061389b82613988565b91506138a683613988565b9250817fffffffffffffffffffffffffffffffffffffffffffffffffffffffffffffffff04831182151516156138df576138de613ac9565b5b828202905092915050565b60006138f582613988565b915061390083613988565b92508282101561391357613912613ac9565b5b828203905092915050565b600061392982613968565b9050919050565b60008115159050919050565b60007fffffffff0000000000000000000000000000000000000000000000000000000082169050919050565b600073ffffffffffffffffffffffffffffffffffffffff82169050919050565b6000819050919050565b60006bffffffffffffffffffffffff82169050919050565b82818337600083830152505050565b60005b838110156139d75780820151818401526020810190506139bc565b838111156139e6576000848401525b50505050565b60006002820490506001821680613a0457607f821691505b60208210811415613a1857613a17613b27565b5b50919050565b613a2782613b85565b810181811067ffffffffffffffff82111715613a4657613a45613b56565b5b80604052505050565b6000613a5a82613988565b91507fffffffffffffffffffffffffffffffffffffffffffffffffffffffffffffffff821415613a8d57613a8c613ac9565b5b600182019050919050565b6000613aa382613988565b9150613aae83613988565b925082613abe57613abd613af8565b5b828206905092915050565b7f4e487b7100000000000000000000000000000000000000000000000000000000600052601160045260246000fd5b7f4e487b7100000000000000000000000000000000000000000000000000000000600052601260045260246000fd5b7f4e487b7100000000000000000000000000000000000000000000000000000000600052602260045260246000fd5b7f4e487b7100000000000000000000000000000000000000000000000000000000600052604160045260246000fd5b6000601f19601f8301169050919050565b7f455243373231456e756d657261626c653a206f776e657220696e646578206f7560008201527f74206f6620626f756e6473000000000000000000000000000000000000000000602082015250565b7f4552433732313a207472616e7366657220746f206e6f6e20455243373231526560008201527f63656976657220696d706c656d656e7465720000000000000000000000000000602082015250565b7f4f776e61626c653a206e6577206f776e657220697320746865207a65726f206160008201527f6464726573730000000000000000000000000000000000000000000000000000602082015250565b7f4552433732313a207472616e736665722066726f6d20696e636f72726563742060008201527f6f776e6572000000000000000000000000000000000000000000000000000000602082015250565b7f4552433732313a20746f6b656e20616c7265616479206d696e74656400000000600082015250565b7f4552433732313a207472616e7366657220746f20746865207a65726f2061646460008201527f7265737300000000000000000000000000000000000000000000000000000000602082015250565b7f4552433732313a20617070726f766520746f2063616c6c657200000000000000600082015250565b7f4552433732313a2061646472657373207a65726f206973206e6f74206120766160008201527f6c6964206f776e65720000000000000000000000000000000000000000000000602082015250565b7f45524337323155524953746f726167653a2055524920736574206f66206e6f6e60008201527f6578697374656e7420746f6b656e000000000000000000000000000000000000602082015250565b7f4f6e6c792063726561746f722063616e2073657420746f6b656e20726f79616c60008201527f74792e0000000000000000000000000000000000000000000000000000000000602082015250565b7f4552433732313a20617070726f76652063616c6c6572206973206e6f7420746f60008201527f6b656e206f776e6572206e6f7220617070726f76656420666f7220616c6c0000602082015250565b7f4552433732313a206d696e7420746f20746865207a65726f2061646472657373600082015250565b7f4f776e61626c653a2063616c6c6572206973206e6f7420746865206f776e6572600082015250565b7f4552433732313a20696e76616c696420746f6b656e2049440000000000000000600082015250565b7f4552433732313a20617070726f76616c20746f2063757272656e74206f776e6560008201527f7200000000000000000000000000000000000000000000000000000000000000602082015250565b7f455243323938313a20496e76616c696420706172616d65746572730000000000600082015250565b7f455243373231456e756d657261626c653a20676c6f62616c20696e646578206f60008201527f7574206f6620626f756e64730000000000000000000000000000000000000000602082015250565b7f455243323938313a20726f79616c7479206665652077696c6c2065786365656460008201527f2073616c65507269636500000000000000000000000000000000000000000000602082015250565b7f4552433732313a2063616c6c6572206973206e6f7420746f6b656e206f776e6560008201527f72206e6f7220617070726f766564000000000000000000000000000000000000602082015250565b7f455243323938313a20696e76616c696420726563656976657200000000000000600082015250565b6140c18161391e565b81146140cc57600080fd5b50565b6140d881613930565b81146140e357600080fd5b50565b6140ef8161393c565b81146140fa57600080fd5b50565b61410681613988565b811461411157600080fd5b50565b61411d81613992565b811461412857600080fd5b5056fea2646970667358221220c49286b8b0edfa3e96c0b12a3db60791fec43de6bb64bd43853461b10754b56064736f6c63430008010033",
  "linkReferences": {},
  "deployedLinkReferences": {}
}