{
  "contractName": "Marketplace",
  "abi": [
    {
      "inputs": [
        {
          "internalType": "uint256",
          "name": "",
          "type": "uint256"
        }
      ],
      "name": "items",
      "outputs": [
        {
          "internalType": "string",
          "name": "name",
          "type": "string"
        },
        {
          "internalType": "string",
          "name": "imgUrl",
          "type": "string"
        },
        {
          "internalType": "uint256",
          "name": "index",
          "type": "uint256"
        },
        {
          "internalType": "address",
          "name": "tokenAddress",
          "type": "address"
        },
        {
          "internalType": "uint256",
          "name": "tokenID",
          "type": "uint256"
        },
        {
          "internalType": "uint256",
          "name": "price",
          "type": "uint256"
        },
        {
          "internalType": "address payable",
          "name": "owner",
          "type": "address"
        },
        {
          "internalType": "string",
          "name": "url",
          "type": "string"
        }
      ],
      "stateMutability": "view",
      "type": "function"
    },
    {
      "inputs": [
        {
          "internalType": "address",
          "name": "",
          "type": "address"
        },
        {
          "internalType": "uint256",
          "name": "",
          "type": "uint256"
        }
      ],
      "name": "listedTokens",
      "outputs": [
        {
          "internalType": "bool",
          "name": "",
          "type": "bool"
        }
      ],
      "stateMutability": "view",
      "type": "function"
    },
    {
      "inputs": [
        {
          "internalType": "string",
          "name": "_name",
          "type": "string"
        },
        {
          "internalType": "string",
          "name": "_imgUrl",
          "type": "string"
        },
        {
          "internalType": "uint256",
          "name": "_tokenID",
          "type": "uint256"
        },
        {
          "internalType": "uint256",
          "name": "_price",
          "type": "uint256"
        },
        {
          "internalType": "address",
          "name": "_tokenAddress",
          "type": "address"
        },
        {
          "internalType": "string",
          "name": "_url",
          "type": "string"
        }
      ],
      "name": "listForSale",
      "outputs": [],
      "stateMutability": "nonpayable",
      "type": "function"
    },
    {
      "inputs": [
        {
          "internalType": "uint256",
          "name": "_index",
          "type": "uint256"
        }
      ],
      "name": "buyNFT",
      "outputs": [],
      "stateMutability": "payable",
      "type": "function"
    },
    {
      "inputs": [],
      "name": "getItemsList",
      "outputs": [
        {
          "components": [
            {
              "internalType": "string",
              "name": "name",
              "type": "string"
            },
            {
              "internalType": "string",
              "name": "imgUrl",
              "type": "string"
            },
            {
              "internalType": "uint256",
              "name": "index",
              "type": "uint256"
            },
            {
              "internalType": "address",
              "name": "tokenAddress",
              "type": "address"
            },
            {
              "internalType": "uint256",
              "name": "tokenID",
              "type": "uint256"
            },
            {
              "internalType": "uint256",
              "name": "price",
              "type": "uint256"
            },
            {
              "internalType": "address payable",
              "name": "owner",
              "type": "address"
            },
            {
              "internalType": "string",
              "name": "url",
              "type": "string"
            }
          ],
          "internalType": "struct Marketplace.Item[]",
          "name": "",
          "type": "tuple[]"
        }
      ],
      "stateMutability": "view",
      "type": "function"
    },
    {
      "inputs": [],
      "name": "totalItems",
      "outputs": [
        {
          "internalType": "uint256",
          "name": "",
          "type": "uint256"
        }
      ],
      "stateMutability": "view",
      "type": "function"
    }
  ],
  "bytecode": "0x608060405234801561001057600080fd5b5061234a806100206000396000f3fe6080604052600436106100555760003560e01c80632799276d1461005a5780633cf29d041461008557806351ed8288146100ae5780638ff152a8146100ca578063bfb231d2146100f5578063d2c3b71014610139575b600080fd5b34801561006657600080fd5b5061006f610176565b60405161007c9190611307565b60405180910390f35b34801561009157600080fd5b506100ac60048036038101906100a79190611506565b610182565b005b6100c860048036038101906100c391906115e7565b610672565b005b3480156100d657600080fd5b506100df610d52565b6040516100ec9190611852565b60405180910390f35b34801561010157600080fd5b5061011c600480360381019061011791906115e7565b611032565b6040516101309897969594939291906118dc565b60405180910390f35b34801561014557600080fd5b50610160600480360381019061015b919061196f565b611262565b60405161016d91906119ca565b60405180910390f35b60008080549050905090565b60008080549050905060008390508073ffffffffffffffffffffffffffffffffffffffff16636352211e876040518263ffffffff1660e01b81526004016101c99190611307565b602060405180830381865afa1580156101e6573d6000803e3d6000fd5b505050506040513d601f19601f8201168201806040525081019061020a91906119fa565b73ffffffffffffffffffffffffffffffffffffffff163373ffffffffffffffffffffffffffffffffffffffff1614610277576040517f08c379a000000000000000000000000000000000000000000000000000000000815260040161026e90611a99565b60405180910390fd5b600160008573ffffffffffffffffffffffffffffffffffffffff1673ffffffffffffffffffffffffffffffffffffffff168152602001908152602001600020600087815260200190815260200160002060009054906101000a900460ff1615610315576040517f08c379a000000000000000000000000000000000000000000000000000000000815260040161030c90611b2b565b60405180910390fd5b8073ffffffffffffffffffffffffffffffffffffffff1663081812fc876040518263ffffffff1660e01b815260040161034e9190611307565b602060405180830381865afa15801561036b573d6000803e3d6000fd5b505050506040513d601f19601f8201168201806040525081019061038f91906119fa565b73ffffffffffffffffffffffffffffffffffffffff163073ffffffffffffffffffffffffffffffffffffffff16148061044057508073ffffffffffffffffffffffffffffffffffffffff1663e985e9c533306040518363ffffffff1660e01b81526004016103fe929190611b4b565b602060405180830381865afa15801561041b573d6000803e3d6000fd5b505050506040513d601f19601f8201168201806040525081019061043f9190611ba0565b5b61047f576040517f08c379a000000000000000000000000000000000000000000000000000000000815260040161047690611c3f565b60405180910390fd5b60006040518061010001604052808a81526020018981526020018481526020018673ffffffffffffffffffffffffffffffffffffffff1681526020018881526020018781526020013373ffffffffffffffffffffffffffffffffffffffff16815260200185815250908060018154018082558091505060019003906000526020600020906008020160009091909190915060008201518160000190816105259190611e6b565b50602082015181600101908161053b9190611e6b565b506040820151816002015560608201518160030160006101000a81548173ffffffffffffffffffffffffffffffffffffffff021916908373ffffffffffffffffffffffffffffffffffffffff1602179055506080820151816004015560a0820151816005015560c08201518160060160006101000a81548173ffffffffffffffffffffffffffffffffffffffff021916908373ffffffffffffffffffffffffffffffffffffffff16021790555060e08201518160070190816105fd9190611e6b565b50505060018060008673ffffffffffffffffffffffffffffffffffffffff1673ffffffffffffffffffffffffffffffffffffffff168152602001908152602001600020600088815260200190815260200160002060006101000a81548160ff0219169083151502179055505050505050505050565b6000818154811061068657610685611f3d565b5b90600052602060002090600802016005015434146106d9576040517f08c379a00000000000000000000000000000000000000000000000000000000081526004016106d090611fde565b60405180910390fd5b60008082815481106106ee576106ed611f3d565b5b906000526020600020906008020160030160009054906101000a900473ffffffffffffffffffffffffffffffffffffffff1690508073ffffffffffffffffffffffffffffffffffffffff166342842e0e6000848154811061075257610751611f3d565b5b906000526020600020906008020160060160009054906101000a900473ffffffffffffffffffffffffffffffffffffffff16336000868154811061079957610798611f3d565b5b9060005260206000209060080201600401546040518463ffffffff1660e01b81526004016107c993929190612053565b600060405180830381600087803b1580156107e357600080fd5b505af11580156107f7573d6000803e3d6000fd5b505050506000808273ffffffffffffffffffffffffffffffffffffffff16632a55205a6000868154811061082e5761082d611f3d565b5b906000526020600020906008020160040154346040518363ffffffff1660e01b815260040161085e92919061208a565b6040805180830381865afa15801561087a573d6000803e3d6000fd5b505050506040513d601f19601f8201168201806040525081019061089e91906120c8565b9150915060003490506000821180156108e45750600073ffffffffffffffffffffffffffffffffffffffff168373ffffffffffffffffffffffffffffffffffffffff1614155b1561093f5781346108f59190612137565b90508273ffffffffffffffffffffffffffffffffffffffff166108fc839081150290604051600060405180830381858888f1935050505015801561093d573d6000803e3d6000fd5b505b6000858154811061095357610952611f3d565b5b906000526020600020906008020160060160009054906101000a900473ffffffffffffffffffffffffffffffffffffffff1673ffffffffffffffffffffffffffffffffffffffff166108fc829081150290604051600060405180830381858888f193505050501580156109ca573d6000803e3d6000fd5b506000600160008088815481106109e4576109e3611f3d565b5b906000526020600020906008020160030160009054906101000a900473ffffffffffffffffffffffffffffffffffffffff1673ffffffffffffffffffffffffffffffffffffffff1673ffffffffffffffffffffffffffffffffffffffff1681526020019081526020016000206000808881548110610a6557610a64611f3d565b5b906000526020600020906008020160040154815260200190815260200160002060006101000a81548160ff02191690831515021790555060008590505b6001600080549050610ab49190612137565b811015610c89576000600182610aca919061216b565b81548110610adb57610ada611f3d565b5b906000526020600020906008020160008281548110610afd57610afc611f3d565b5b906000526020600020906008020160008201816000019081610b1f91906121b5565b5060018201816001019081610b3491906121b5565b50600282015481600201556003820160009054906101000a900473ffffffffffffffffffffffffffffffffffffffff168160030160006101000a81548173ffffffffffffffffffffffffffffffffffffffff021916908373ffffffffffffffffffffffffffffffffffffffff16021790555060048201548160040155600582015481600501556006820160009054906101000a900473ffffffffffffffffffffffffffffffffffffffff168160060160006101000a81548173ffffffffffffffffffffffffffffffffffffffff021916908373ffffffffffffffffffffffffffffffffffffffff16021790555060078201816007019081610c3591906121b5565b50905050600160008281548110610c4f57610c4e611f3d565b5b90600052602060002090600802016002016000828254610c6f9190612137565b925050819055508080610c819061229d565b915050610aa2565b506000805480610c9c57610c9b6122e5565b5b600190038181906000526020600020906008020160008082016000610cc19190611291565b600182016000610cd19190611291565b60028201600090556003820160006101000a81549073ffffffffffffffffffffffffffffffffffffffff0219169055600482016000905560058201600090556006820160006101000a81549073ffffffffffffffffffffffffffffffffffffffff0219169055600782016000610d479190611291565b505090555050505050565b60606000805480602002602001604051908101604052809291908181526020016000905b82821015611029578382906000526020600020906008020160405180610100016040529081600082018054610daa90611c8e565b80601f0160208091040260200160405190810160405280929190818152602001828054610dd690611c8e565b8015610e235780601f10610df857610100808354040283529160200191610e23565b820191906000526020600020905b815481529060010190602001808311610e0657829003601f168201915b50505050508152602001600182018054610e3c90611c8e565b80601f0160208091040260200160405190810160405280929190818152602001828054610e6890611c8e565b8015610eb55780601f10610e8a57610100808354040283529160200191610eb5565b820191906000526020600020905b815481529060010190602001808311610e9857829003601f168201915b50505050508152602001600282015481526020016003820160009054906101000a900473ffffffffffffffffffffffffffffffffffffffff1673ffffffffffffffffffffffffffffffffffffffff1673ffffffffffffffffffffffffffffffffffffffff16815260200160048201548152602001600582015481526020016006820160009054906101000a900473ffffffffffffffffffffffffffffffffffffffff1673ffffffffffffffffffffffffffffffffffffffff1673ffffffffffffffffffffffffffffffffffffffff168152602001600782018054610f9890611c8e565b80601f0160208091040260200160405190810160405280929190818152602001828054610fc490611c8e565b80156110115780601f10610fe657610100808354040283529160200191611011565b820191906000526020600020905b815481529060010190602001808311610ff457829003601f168201915b50505050508152505081526020019060010190610d76565b50505050905090565b6000818154811061104257600080fd5b906000526020600020906008020160009150905080600001805461106590611c8e565b80601f016020809104026020016040519081016040528092919081815260200182805461109190611c8e565b80156110de5780601f106110b3576101008083540402835291602001916110de565b820191906000526020600020905b8154815290600101906020018083116110c157829003601f168201915b5050505050908060010180546110f390611c8e565b80601f016020809104026020016040519081016040528092919081815260200182805461111f90611c8e565b801561116c5780601f106111415761010080835404028352916020019161116c565b820191906000526020600020905b81548152906001019060200180831161114f57829003601f168201915b5050505050908060020154908060030160009054906101000a900473ffffffffffffffffffffffffffffffffffffffff16908060040154908060050154908060060160009054906101000a900473ffffffffffffffffffffffffffffffffffffffff16908060070180546111df90611c8e565b80601f016020809104026020016040519081016040528092919081815260200182805461120b90611c8e565b80156112585780601f1061122d57610100808354040283529160200191611258565b820191906000526020600020905b81548152906001019060200180831161123b57829003601f168201915b5050505050905088565b60016020528160005260406000206020528060005260406000206000915091509054906101000a900460ff1681565b50805461129d90611c8e565b6000825580601f106112af57506112ce565b601f0160209004906000526020600020908101906112cd91906112d1565b5b50565b5b808211156112ea5760008160009055506001016112d2565b5090565b6000819050919050565b611301816112ee565b82525050565b600060208201905061131c60008301846112f8565b92915050565b6000604051905090565b600080fd5b600080fd5b600080fd5b600080fd5b6000601f19601f8301169050919050565b7f4e487b7100000000000000000000000000000000000000000000000000000000600052604160045260246000fd5b61138982611340565b810181811067ffffffffffffffff821117156113a8576113a7611351565b5b80604052505050565b60006113bb611322565b90506113c78282611380565b919050565b600067ffffffffffffffff8211156113e7576113e6611351565b5b6113f082611340565b9050602081019050919050565b82818337600083830152505050565b600061141f61141a846113cc565b6113b1565b90508281526020810184848401111561143b5761143a61133b565b5b6114468482856113fd565b509392505050565b600082601f83011261146357611462611336565b5b813561147384826020860161140c565b91505092915050565b611485816112ee565b811461149057600080fd5b50565b6000813590506114a28161147c565b92915050565b600073ffffffffffffffffffffffffffffffffffffffff82169050919050565b60006114d3826114a8565b9050919050565b6114e3816114c8565b81146114ee57600080fd5b50565b600081359050611500816114da565b92915050565b60008060008060008060c087890312156115235761152261132c565b5b600087013567ffffffffffffffff81111561154157611540611331565b5b61154d89828a0161144e565b965050602087013567ffffffffffffffff81111561156e5761156d611331565b5b61157a89828a0161144e565b955050604061158b89828a01611493565b945050606061159c89828a01611493565b93505060806115ad89828a016114f1565b92505060a087013567ffffffffffffffff8111156115ce576115cd611331565b5b6115da89828a0161144e565b9150509295509295509295565b6000602082840312156115fd576115fc61132c565b5b600061160b84828501611493565b91505092915050565b600081519050919050565b600082825260208201905092915050565b6000819050602082019050919050565b600081519050919050565b600082825260208201905092915050565b60005b8381101561167a57808201518184015260208101905061165f565b60008484015250505050565b600061169182611640565b61169b818561164b565b93506116ab81856020860161165c565b6116b481611340565b840191505092915050565b6116c8816112ee565b82525050565b6116d7816114c8565b82525050565b60006116e8826114a8565b9050919050565b6116f8816116dd565b82525050565b600061010083016000830151848203600086015261171c8282611686565b915050602083015184820360208601526117368282611686565b915050604083015161174b60408601826116bf565b50606083015161175e60608601826116ce565b50608083015161177160808601826116bf565b5060a083015161178460a08601826116bf565b5060c083015161179760c08601826116ef565b5060e083015184820360e08601526117af8282611686565b9150508091505092915050565b60006117c883836116fe565b905092915050565b6000602082019050919050565b60006117e882611614565b6117f2818561161f565b93508360208202850161180485611630565b8060005b85811015611840578484038952815161182185826117bc565b945061182c836117d0565b925060208a01995050600181019050611808565b50829750879550505050505092915050565b6000602082019050818103600083015261186c81846117dd565b905092915050565b600082825260208201905092915050565b600061189082611640565b61189a8185611874565b93506118aa81856020860161165c565b6118b381611340565b840191505092915050565b6118c7816114c8565b82525050565b6118d6816116dd565b82525050565b60006101008201905081810360008301526118f7818b611885565b9050818103602083015261190b818a611885565b905061191a60408301896112f8565b61192760608301886118be565b61193460808301876112f8565b61194160a08301866112f8565b61194e60c08301856118cd565b81810360e08301526119608184611885565b90509998505050505050505050565b600080604083850312156119865761198561132c565b5b6000611994858286016114f1565b92505060206119a585828601611493565b9150509250929050565b60008115159050919050565b6119c4816119af565b82525050565b60006020820190506119df60008301846119bb565b92915050565b6000815190506119f4816114da565b92915050565b600060208284031215611a1057611a0f61132c565b5b6000611a1e848285016119e5565b91505092915050565b7f4d61726b6574506c6163653a2053656e646572206973206e6f7420746865206f60008201527f776e6572206f6620746f6b656e00000000000000000000000000000000000000602082015250565b6000611a83602d83611874565b9150611a8e82611a27565b604082019050919050565b60006020820190508181036000830152611ab281611a76565b9050919050565b7f4d61726b6574506c6163653a20546f6b656e20697320616c7265616479206c6960008201527f7374656400000000000000000000000000000000000000000000000000000000602082015250565b6000611b15602483611874565b9150611b2082611ab9565b604082019050919050565b60006020820190508181036000830152611b4481611b08565b9050919050565b6000604082019050611b6060008301856118be565b611b6d60208301846118be565b9392505050565b611b7d816119af565b8114611b8857600080fd5b50565b600081519050611b9a81611b74565b92915050565b600060208284031215611bb657611bb561132c565b5b6000611bc484828501611b8b565b91505092915050565b7f4d61726b6574506c6163653a204e46544d61726b6574506c616365206973206e60008201527f6f742070726f766964656420617070726f76616c20746f207472616e73666572602082015250565b6000611c29604083611874565b9150611c3482611bcd565b604082019050919050565b60006020820190508181036000830152611c5881611c1c565b9050919050565b7f4e487b7100000000000000000000000000000000000000000000000000000000600052602260045260246000fd5b60006002820490506001821680611ca657607f821691505b602082108103611cb957611cb8611c5f565b5b50919050565b60008190508160005260206000209050919050565b60006020601f8301049050919050565b600082821b905092915050565b600060088302611d217fffffffffffffffffffffffffffffffffffffffffffffffffffffffffffffffff82611ce4565b611d2b8683611ce4565b95508019841693508086168417925050509392505050565b6000819050919050565b6000611d68611d63611d5e846112ee565b611d43565b6112ee565b9050919050565b6000819050919050565b611d8283611d4d565b611d96611d8e82611d6f565b848454611cf1565b825550505050565b600090565b611dab611d9e565b611db6818484611d79565b505050565b5b81811015611dda57611dcf600082611da3565b600181019050611dbc565b5050565b601f821115611e1f57611df081611cbf565b611df984611cd4565b81016020851015611e08578190505b611e1c611e1485611cd4565b830182611dbb565b50505b505050565b600082821c905092915050565b6000611e4260001984600802611e24565b1980831691505092915050565b6000611e5b8383611e31565b9150826002028217905092915050565b611e7482611640565b67ffffffffffffffff811115611e8d57611e8c611351565b5b611e978254611c8e565b611ea2828285611dde565b600060209050601f831160018114611ed55760008415611ec3578287015190505b611ecd8582611e4f565b865550611f35565b601f198416611ee386611cbf565b60005b82811015611f0b57848901518255600182019150602085019450602081019050611ee6565b86831015611f285784890151611f24601f891682611e31565b8355505b6001600288020188555050505b505050505050565b7f4e487b7100000000000000000000000000000000000000000000000000000000600052603260045260246000fd5b7f4d61726b6574506c6163653a20506c65617365207061792074686520616d6f7560008201527f6e7420657175616c20746f207072696365000000000000000000000000000000602082015250565b6000611fc8603183611874565b9150611fd382611f6c565b604082019050919050565b60006020820190508181036000830152611ff781611fbb565b9050919050565b600061201961201461200f846114a8565b611d43565b6114a8565b9050919050565b600061202b82611ffe565b9050919050565b600061203d82612020565b9050919050565b61204d81612032565b82525050565b60006060820190506120686000830186612044565b61207560208301856118be565b61208260408301846112f8565b949350505050565b600060408201905061209f60008301856112f8565b6120ac60208301846112f8565b9392505050565b6000815190506120c28161147c565b92915050565b600080604083850312156120df576120de61132c565b5b60006120ed858286016119e5565b92505060206120fe858286016120b3565b9150509250929050565b7f4e487b7100000000000000000000000000000000000000000000000000000000600052601160045260246000fd5b6000612142826112ee565b915061214d836112ee565b925082820390508181111561216557612164612108565b5b92915050565b6000612176826112ee565b9150612181836112ee565b925082820190508082111561219957612198612108565b5b92915050565b6000815490506121ae81611c8e565b9050919050565b8181036121c357505061229b565b6121cc8261219f565b67ffffffffffffffff8111156121e5576121e4611351565b5b6121ef8254611c8e565b6121fa828285611dde565b6000601f8311600181146122295760008415612217578287015490505b6122218582611e4f565b865550612294565b601f19841661223787611cbf565b965061224286611cbf565b60005b8281101561226a57848901548255600182019150600185019450602081019050612245565b868310156122875784890154612283601f891682611e31565b8355505b6001600288020188555050505b5050505050505b565b60006122a8826112ee565b91507fffffffffffffffffffffffffffffffffffffffffffffffffffffffffffffffff82036122da576122d9612108565b5b600182019050919050565b7f4e487b7100000000000000000000000000000000000000000000000000000000600052603160045260246000fdfea2646970667358221220980c81ab9d5db7c57679421452ec9f92202c4411e5d3e3e4c0910d00e0eadc4664736f6c63430008100033",
  "immutableReferences": {},
  "source": "pragma solidity ^0.8.0;\r\n\r\nimport \"@openzeppelin/contracts/utils/math/SafeMath.sol\";\r\nimport \"@openzeppelin/contracts/security/ReentrancyGuard.sol\";\r\nimport \"./NFT.sol\";\r\n// import \"hardhat/console.sol\";\r\n\r\ncontract Marketplace {\r\n    using SafeMath for uint256; \r\n\r\n    struct Item {\r\n        string name;\r\n        string imgUrl;\r\n        uint256 index; //Unique identifier for various NFTs on this particular MARKETPLACE\r\n        address tokenAddress; //Contract address where the NFT exists.\r\n        uint256 tokenID; //Identifier of NFT on that tokenAddress\r\n        uint256 price; //Price of the NFT listed for sale\r\n        address payable owner; //Current owner of the NFT\r\n        string url; //Points to the additional information about NFT.\r\n\r\n    }\r\n\r\n    //Array of the Items listed for sale\r\n    Item[] public items;\r\n\r\n    //Check if the NFT is already listed\r\n    //listedTokens[tokenAddress][tokenId]\r\n    mapping(address => mapping(uint256 => bool)) public listedTokens;\r\n\r\n\r\n    function listForSale(\r\n        string memory _name,\r\n        string memory _imgUrl,\r\n        uint256 _tokenID,\r\n        uint256 _price,\r\n        address _tokenAddress,\r\n        string memory _url\r\n    ) public {\r\n        uint256 index = items.length;\r\n        NFT erc721 = NFT(_tokenAddress);\r\n\r\n        // Check if the owner of the token is msg.sender\r\n        require(\r\n            msg.sender == erc721.ownerOf(_tokenID),\r\n            \"MarketPlace: Sender is not the owner of token\"\r\n        );\r\n\r\n        //Check if the token ID is already listed\r\n        require(\r\n            !listedTokens[_tokenAddress][_tokenID],\r\n            \"MarketPlace: Token is already listed\"\r\n        );\r\n\r\n        //Check if the marketplace is approved for transfer for the tokenID\r\n        require(\r\n            address(this) == erc721.getApproved(_tokenID) ||\r\n                erc721.isApprovedForAll(msg.sender, address(this)),\r\n            \"MarketPlace: NFTMarketPlace is not provided approval to transfer\"\r\n        );\r\n\r\n        items.push(\r\n            Item(\r\n                _name,\r\n                _imgUrl,\r\n                index,\r\n                _tokenAddress,\r\n                _tokenID,\r\n                _price,\r\n                payable(msg.sender),\r\n                _url\r\n            )\r\n        );\r\n        listedTokens[_tokenAddress][_tokenID] = true;\r\n    }\r\n\r\n    function buyNFT(uint256 _index) public payable {\r\n        //Check if required price is supplied\r\n        require(\r\n            msg.value == items[_index].price,\r\n            \"MarketPlace: Please pay the amount equal to price\"\r\n        );\r\n\r\n        //Transfer the MyToken to the buyer\r\n        NFT erc721 = NFT(items[_index].tokenAddress);\r\n        erc721.safeTransferFrom(\r\n            items[_index].owner,\r\n            msg.sender,\r\n            items[_index].tokenID\r\n        );\r\n\r\n        //Get the royalty information\r\n        (address royaltyReceiver, uint256 royaltyAmount) = erc721.royaltyInfo(\r\n            items[_index].tokenID,\r\n            msg.value\r\n        );\r\n\r\n        //Transfer the royalty amount to the royalty reciever.\r\n        uint256 remainingAmount = msg.value;\r\n        if (royaltyAmount > 0 && royaltyReceiver != address(0)) {\r\n            remainingAmount = msg.value - royaltyAmount;\r\n            payable(royaltyReceiver).transfer(royaltyAmount);\r\n        }\r\n\r\n        //Transfer the right amount to owner \r\n        items[_index].owner.transfer(remainingAmount);\r\n\r\n        //Mark particular NFT as not\r\n        listedTokens[items[_index].tokenAddress][items[_index].tokenID] = false;\r\n\r\n        //Remove the item from the list\r\n        for (uint256 i = _index; i < items.length - 1; i++) {\r\n            items[i] = items[i + 1];\r\n            items[i].index -= 1;\r\n        }\r\n        items.pop();\r\n    }\r\n\r\n    function getItemsList() external view returns (Item[] memory) {\r\n        return items;\r\n    }\r\n\r\n    function totalItems() external view returns (uint256) {\r\n        return items.length;\r\n    }\r\n}\r\n",
  "sourcePath": "D:\\Programming\\nft-marketplace\\client\\contracts\\Marketplace.sol",
  "compiler": {
    "name": "solc",
    "version": "0.8.16+commit.07a7930e.Emscripten.clang"
  },
  "schemaVersion": "3.4.9",
  "updatedAt": "2022-08-23T00:55:32.809Z",
  "devdoc": {
    "kind": "dev",
    "methods": {},
    "version": 1
  },
  "userdoc": {
    "kind": "user",
    "methods": {},
    "version": 1
  }
}