{
  "contractName": "NFT",
  "abi": [
    {
      "inputs": [],
      "stateMutability": "nonpayable",
      "type": "constructor"
    },
    {
      "anonymous": false,
      "inputs": [
        {
          "indexed": true,
          "internalType": "address",
          "name": "owner",
          "type": "address"
        },
        {
          "indexed": true,
          "internalType": "address",
          "name": "approved",
          "type": "address"
        },
        {
          "indexed": true,
          "internalType": "uint256",
          "name": "tokenId",
          "type": "uint256"
        }
      ],
      "name": "Approval",
      "type": "event"
    },
    {
      "anonymous": false,
      "inputs": [
        {
          "indexed": true,
          "internalType": "address",
          "name": "owner",
          "type": "address"
        },
        {
          "indexed": true,
          "internalType": "address",
          "name": "operator",
          "type": "address"
        },
        {
          "indexed": false,
          "internalType": "bool",
          "name": "approved",
          "type": "bool"
        }
      ],
      "name": "ApprovalForAll",
      "type": "event"
    },
    {
      "anonymous": false,
      "inputs": [
        {
          "indexed": true,
          "internalType": "address",
          "name": "previousOwner",
          "type": "address"
        },
        {
          "indexed": true,
          "internalType": "address",
          "name": "newOwner",
          "type": "address"
        }
      ],
      "name": "OwnershipTransferred",
      "type": "event"
    },
    {
      "anonymous": false,
      "inputs": [
        {
          "indexed": true,
          "internalType": "address",
          "name": "from",
          "type": "address"
        },
        {
          "indexed": true,
          "internalType": "address",
          "name": "to",
          "type": "address"
        },
        {
          "indexed": true,
          "internalType": "uint256",
          "name": "tokenId",
          "type": "uint256"
        }
      ],
      "name": "Transfer",
      "type": "event"
    },
    {
      "inputs": [
        {
          "internalType": "uint256",
          "name": "",
          "type": "uint256"
        }
      ],
      "name": "_creators",
      "outputs": [
        {
          "internalType": "address",
          "name": "",
          "type": "address"
        }
      ],
      "stateMutability": "view",
      "type": "function"
    },
    {
      "inputs": [
        {
          "internalType": "address",
          "name": "to",
          "type": "address"
        },
        {
          "internalType": "uint256",
          "name": "tokenId",
          "type": "uint256"
        }
      ],
      "name": "approve",
      "outputs": [],
      "stateMutability": "nonpayable",
      "type": "function"
    },
    {
      "inputs": [
        {
          "internalType": "address",
          "name": "owner",
          "type": "address"
        }
      ],
      "name": "balanceOf",
      "outputs": [
        {
          "internalType": "uint256",
          "name": "",
          "type": "uint256"
        }
      ],
      "stateMutability": "view",
      "type": "function"
    },
    {
      "inputs": [
        {
          "internalType": "uint256",
          "name": "tokenId",
          "type": "uint256"
        }
      ],
      "name": "getApproved",
      "outputs": [
        {
          "internalType": "address",
          "name": "",
          "type": "address"
        }
      ],
      "stateMutability": "view",
      "type": "function"
    },
    {
      "inputs": [
        {
          "internalType": "address",
          "name": "owner",
          "type": "address"
        },
        {
          "internalType": "address",
          "name": "operator",
          "type": "address"
        }
      ],
      "name": "isApprovedForAll",
      "outputs": [
        {
          "internalType": "bool",
          "name": "",
          "type": "bool"
        }
      ],
      "stateMutability": "view",
      "type": "function"
    },
    {
      "inputs": [],
      "name": "name",
      "outputs": [
        {
          "internalType": "string",
          "name": "",
          "type": "string"
        }
      ],
      "stateMutability": "view",
      "type": "function"
    },
    {
      "inputs": [],
      "name": "owner",
      "outputs": [
        {
          "internalType": "address",
          "name": "",
          "type": "address"
        }
      ],
      "stateMutability": "view",
      "type": "function"
    },
    {
      "inputs": [
        {
          "internalType": "uint256",
          "name": "tokenId",
          "type": "uint256"
        }
      ],
      "name": "ownerOf",
      "outputs": [
        {
          "internalType": "address",
          "name": "",
          "type": "address"
        }
      ],
      "stateMutability": "view",
      "type": "function"
    },
    {
      "inputs": [],
      "name": "renounceOwnership",
      "outputs": [],
      "stateMutability": "nonpayable",
      "type": "function"
    },
    {
      "inputs": [
        {
          "internalType": "uint256",
          "name": "_tokenId",
          "type": "uint256"
        },
        {
          "internalType": "uint256",
          "name": "_salePrice",
          "type": "uint256"
        }
      ],
      "name": "royaltyInfo",
      "outputs": [
        {
          "internalType": "address",
          "name": "",
          "type": "address"
        },
        {
          "internalType": "uint256",
          "name": "",
          "type": "uint256"
        }
      ],
      "stateMutability": "view",
      "type": "function"
    },
    {
      "inputs": [
        {
          "internalType": "address",
          "name": "from",
          "type": "address"
        },
        {
          "internalType": "address",
          "name": "to",
          "type": "address"
        },
        {
          "internalType": "uint256",
          "name": "tokenId",
          "type": "uint256"
        }
      ],
      "name": "safeTransferFrom",
      "outputs": [],
      "stateMutability": "nonpayable",
      "type": "function"
    },
    {
      "inputs": [
        {
          "internalType": "address",
          "name": "from",
          "type": "address"
        },
        {
          "internalType": "address",
          "name": "to",
          "type": "address"
        },
        {
          "internalType": "uint256",
          "name": "tokenId",
          "type": "uint256"
        },
        {
          "internalType": "bytes",
          "name": "data",
          "type": "bytes"
        }
      ],
      "name": "safeTransferFrom",
      "outputs": [],
      "stateMutability": "nonpayable",
      "type": "function"
    },
    {
      "inputs": [
        {
          "internalType": "address",
          "name": "operator",
          "type": "address"
        },
        {
          "internalType": "bool",
          "name": "approved",
          "type": "bool"
        }
      ],
      "name": "setApprovalForAll",
      "outputs": [],
      "stateMutability": "nonpayable",
      "type": "function"
    },
    {
      "inputs": [],
      "name": "symbol",
      "outputs": [
        {
          "internalType": "string",
          "name": "",
          "type": "string"
        }
      ],
      "stateMutability": "view",
      "type": "function"
    },
    {
      "inputs": [
        {
          "internalType": "uint256",
          "name": "index",
          "type": "uint256"
        }
      ],
      "name": "tokenByIndex",
      "outputs": [
        {
          "internalType": "uint256",
          "name": "",
          "type": "uint256"
        }
      ],
      "stateMutability": "view",
      "type": "function"
    },
    {
      "inputs": [
        {
          "internalType": "address",
          "name": "owner",
          "type": "address"
        },
        {
          "internalType": "uint256",
          "name": "index",
          "type": "uint256"
        }
      ],
      "name": "tokenOfOwnerByIndex",
      "outputs": [
        {
          "internalType": "uint256",
          "name": "",
          "type": "uint256"
        }
      ],
      "stateMutability": "view",
      "type": "function"
    },
    {
      "inputs": [],
      "name": "totalSupply",
      "outputs": [
        {
          "internalType": "uint256",
          "name": "",
          "type": "uint256"
        }
      ],
      "stateMutability": "view",
      "type": "function"
    },
    {
      "inputs": [
        {
          "internalType": "address",
          "name": "from",
          "type": "address"
        },
        {
          "internalType": "address",
          "name": "to",
          "type": "address"
        },
        {
          "internalType": "uint256",
          "name": "tokenId",
          "type": "uint256"
        }
      ],
      "name": "transferFrom",
      "outputs": [],
      "stateMutability": "nonpayable",
      "type": "function"
    },
    {
      "inputs": [
        {
          "internalType": "address",
          "name": "newOwner",
          "type": "address"
        }
      ],
      "name": "transferOwnership",
      "outputs": [],
      "stateMutability": "nonpayable",
      "type": "function"
    },
    {
      "inputs": [
        {
          "internalType": "address",
          "name": "to",
          "type": "address"
        },
        {
          "internalType": "string",
          "name": "uri",
          "type": "string"
        }
      ],
      "name": "safeMint",
      "outputs": [],
      "stateMutability": "nonpayable",
      "type": "function"
    },
    {
      "inputs": [
        {
          "internalType": "string",
          "name": "uri",
          "type": "string"
        }
      ],
      "name": "mint",
      "outputs": [],
      "stateMutability": "nonpayable",
      "type": "function"
    },
    {
      "inputs": [
        {
          "internalType": "uint256",
          "name": "tokenId",
          "type": "uint256"
        }
      ],
      "name": "tokenURI",
      "outputs": [
        {
          "internalType": "string",
          "name": "",
          "type": "string"
        }
      ],
      "stateMutability": "view",
      "type": "function"
    },
    {
      "inputs": [
        {
          "internalType": "bytes4",
          "name": "interfaceId",
          "type": "bytes4"
        }
      ],
      "name": "supportsInterface",
      "outputs": [
        {
          "internalType": "bool",
          "name": "",
          "type": "bool"
        }
      ],
      "stateMutability": "view",
      "type": "function"
    },
    {
      "inputs": [
        {
          "internalType": "address",
          "name": "receiver",
          "type": "address"
        },
        {
          "internalType": "uint96",
          "name": "feeNumerator",
          "type": "uint96"
        }
      ],
      "name": "setDefaultRoyalty",
      "outputs": [],
      "stateMutability": "nonpayable",
      "type": "function"
    },
    {
      "inputs": [
        {
          "internalType": "uint256",
          "name": "tokenId",
          "type": "uint256"
        }
      ],
      "name": "creatorOf",
      "outputs": [
        {
          "internalType": "address",
          "name": "",
          "type": "address"
        }
      ],
      "stateMutability": "view",
      "type": "function"
    },
    {
      "inputs": [
        {
          "internalType": "uint256",
          "name": "tokenId",
          "type": "uint256"
        },
        {
          "internalType": "address",
          "name": "receiver",
          "type": "address"
        },
        {
          "internalType": "uint96",
          "name": "feeNumerator",
          "type": "uint96"
        }
      ],
      "name": "setTokenRoyalty",
      "outputs": [],
      "stateMutability": "nonpayable",
      "type": "function"
    }
  ],
  "bytecode": "0x60806040523480156200001157600080fd5b506040518060400160405280600481526020017f5a4e4654000000000000000000000000000000000000000000000000000000008152506040518060400160405280600381526020017f5a4654000000000000000000000000000000000000000000000000000000000081525081600290816200008f919062000412565b508060039081620000a1919062000412565b505050620000c4620000b8620000ca60201b60201c565b620000d260201b60201c565b620004f9565b600033905090565b6000600d60009054906101000a900473ffffffffffffffffffffffffffffffffffffffff16905081600d60006101000a81548173ffffffffffffffffffffffffffffffffffffffff021916908373ffffffffffffffffffffffffffffffffffffffff1602179055508173ffffffffffffffffffffffffffffffffffffffff168173ffffffffffffffffffffffffffffffffffffffff167f8be0079c531659141344cd1fd0a4f28419497f9722a3daafe3b4186f6b6457e060405160405180910390a35050565b600081519050919050565b7f4e487b7100000000000000000000000000000000000000000000000000000000600052604160045260246000fd5b7f4e487b7100000000000000000000000000000000000000000000000000000000600052602260045260246000fd5b600060028204905060018216806200021a57607f821691505b60208210810362000230576200022f620001d2565b5b50919050565b60008190508160005260206000209050919050565b60006020601f8301049050919050565b600082821b905092915050565b6000600883026200029a7fffffffffffffffffffffffffffffffffffffffffffffffffffffffffffffffff826200025b565b620002a686836200025b565b95508019841693508086168417925050509392505050565b6000819050919050565b6000819050919050565b6000620002f3620002ed620002e784620002be565b620002c8565b620002be565b9050919050565b6000819050919050565b6200030f83620002d2565b620003276200031e82620002fa565b84845462000268565b825550505050565b600090565b6200033e6200032f565b6200034b81848462000304565b505050565b5b8181101562000373576200036760008262000334565b60018101905062000351565b5050565b601f821115620003c2576200038c8162000236565b62000397846200024b565b81016020851015620003a7578190505b620003bf620003b6856200024b565b83018262000350565b50505b505050565b600082821c905092915050565b6000620003e760001984600802620003c7565b1980831691505092915050565b6000620004028383620003d4565b9150826002028217905092915050565b6200041d8262000198565b67ffffffffffffffff811115620004395762000438620001a3565b5b62000445825462000201565b6200045282828562000377565b600060209050601f8311600181146200048a576000841562000475578287015190505b620004818582620003f4565b865550620004f1565b601f1984166200049a8662000236565b60005b82811015620004c4578489015182556001820191506020850194506020810190506200049d565b86831015620004e45784890151620004e0601f891682620003d4565b8355505b6001600288020188555050505b505050505050565b6142cc80620005096000396000f3fe608060405234801561001057600080fd5b506004361061018e5760003560e01c80635944c753116100de578063a22cb46511610097578063d204c45e11610071578063d204c45e146104ba578063d85d3d27146104d6578063e985e9c5146104f2578063f2fde38b146105225761018e565b8063a22cb46514610452578063b88d4fde1461046e578063c87b56dd1461048a5761018e565b80635944c753146103905780636352211e146103ac57806370a08231146103dc578063715018a61461040c5780638da5cb5b1461041657806395d89b41146104345761018e565b806323b872dd1161014b57806342842e0e1161012557806342842e0e146102e45780634816edf4146103005780634f6ccce714610330578063589a1743146103605761018e565b806323b872dd146102675780632a55205a146102835780632f745c59146102b45761018e565b806301ffc9a71461019357806304634d8d146101c357806306fdde03146101df578063081812fc146101fd578063095ea7b31461022d57806318160ddd14610249575b600080fd5b6101ad60048036038101906101a89190612a1b565b61053e565b6040516101ba9190612a63565b60405180910390f35b6101dd60048036038101906101d89190612b20565b610550565b005b6101e7610566565b6040516101f49190612bf0565b60405180910390f35b61021760048036038101906102129190612c48565b6105f8565b6040516102249190612c84565b60405180910390f35b61024760048036038101906102429190612c9f565b61063e565b005b610251610755565b60405161025e9190612cee565b60405180910390f35b610281600480360381019061027c9190612d09565b610762565b005b61029d60048036038101906102989190612d5c565b6107c2565b6040516102ab929190612d9c565b60405180910390f35b6102ce60048036038101906102c99190612c9f565b6109ac565b6040516102db9190612cee565b60405180910390f35b6102fe60048036038101906102f99190612d09565b610a51565b005b61031a60048036038101906103159190612c48565b610a71565b6040516103279190612c84565b60405180910390f35b61034a60048036038101906103459190612c48565b610aa4565b6040516103579190612cee565b60405180910390f35b61037a60048036038101906103759190612c48565b610b15565b6040516103879190612c84565b60405180910390f35b6103aa60048036038101906103a59190612dc5565b610b52565b005b6103c660048036038101906103c19190612c48565b610c03565b6040516103d39190612c84565b60405180910390f35b6103f660048036038101906103f19190612e18565b610cb4565b6040516104039190612cee565b60405180910390f35b610414610d6b565b005b61041e610d7f565b60405161042b9190612c84565b60405180910390f35b61043c610da9565b6040516104499190612bf0565b60405180910390f35b61046c60048036038101906104679190612e71565b610e3b565b005b61048860048036038101906104839190612fe6565b610e51565b005b6104a4600480360381019061049f9190612c48565b610eb3565b6040516104b19190612bf0565b60405180910390f35b6104d460048036038101906104cf919061310a565b610ec5565b005b6104f060048036038101906104eb9190613166565b610f50565b005b61050c600480360381019061050791906131af565b610fd2565b6040516105199190612a63565b60405180910390f35b61053c60048036038101906105379190612e18565b611066565b005b6000610549826110e9565b9050919050565b6105586110fb565b6105628282611179565b5050565b6060600280546105759061321e565b80601f01602080910402602001604051908101604052809291908181526020018280546105a19061321e565b80156105ee5780601f106105c3576101008083540402835291602001916105ee565b820191906000526020600020905b8154815290600101906020018083116105d157829003601f168201915b5050505050905090565b60006106038261130d565b6006600083815260200190815260200160002060009054906101000a900473ffffffffffffffffffffffffffffffffffffffff169050919050565b600061064982610c03565b90508073ffffffffffffffffffffffffffffffffffffffff168373ffffffffffffffffffffffffffffffffffffffff16036106b9576040517f08c379a00000000000000000000000000000000000000000000000000000000081526004016106b0906132c1565b60405180910390fd5b8073ffffffffffffffffffffffffffffffffffffffff166106d8611358565b73ffffffffffffffffffffffffffffffffffffffff161480610707575061070681610701611358565b610fd2565b5b610746576040517f08c379a000000000000000000000000000000000000000000000000000000000815260040161073d90613353565b60405180910390fd5b6107508383611360565b505050565b6000600a80549050905090565b61077361076d611358565b82611419565b6107b2576040517f08c379a00000000000000000000000000000000000000000000000000000000081526004016107a9906133e5565b60405180910390fd5b6107bd8383836114ae565b505050565b6000806000600160008681526020019081526020016000206040518060400160405290816000820160009054906101000a900473ffffffffffffffffffffffffffffffffffffffff1673ffffffffffffffffffffffffffffffffffffffff1673ffffffffffffffffffffffffffffffffffffffff1681526020016000820160149054906101000a90046bffffffffffffffffffffffff166bffffffffffffffffffffffff166bffffffffffffffffffffffff16815250509050600073ffffffffffffffffffffffffffffffffffffffff16816000015173ffffffffffffffffffffffffffffffffffffffff16036109575760006040518060400160405290816000820160009054906101000a900473ffffffffffffffffffffffffffffffffffffffff1673ffffffffffffffffffffffffffffffffffffffff1673ffffffffffffffffffffffffffffffffffffffff1681526020016000820160149054906101000a90046bffffffffffffffffffffffff166bffffffffffffffffffffffff166bffffffffffffffffffffffff168152505090505b6000610961611714565b6bffffffffffffffffffffffff1682602001516bffffffffffffffffffffffff168661098d9190613434565b61099791906134bd565b90508160000151819350935050509250929050565b60006109b783610cb4565b82106109f8576040517f08c379a00000000000000000000000000000000000000000000000000000000081526004016109ef90613560565b60405180910390fd5b600860008473ffffffffffffffffffffffffffffffffffffffff1673ffffffffffffffffffffffffffffffffffffffff168152602001908152602001600020600083815260200190815260200160002054905092915050565b610a6c83838360405180602001604052806000815250610e51565b505050565b600f6020528060005260406000206000915054906101000a900473ffffffffffffffffffffffffffffffffffffffff1681565b6000610aae610755565b8210610aef576040517f08c379a0000000000000000000000000000000000000000000000000000000008152600401610ae6906135f2565b60405180910390fd5b600a8281548110610b0357610b02613612565b5b90600052602060002001549050919050565b6000600f600083815260200190815260200160002060009054906101000a900473ffffffffffffffffffffffffffffffffffffffff169050919050565b600f600084815260200190815260200160002060009054906101000a900473ffffffffffffffffffffffffffffffffffffffff1673ffffffffffffffffffffffffffffffffffffffff163373ffffffffffffffffffffffffffffffffffffffff1614610bf3576040517f08c379a0000000000000000000000000000000000000000000000000000000008152600401610bea906136b3565b60405180910390fd5b610bfe83838361171e565b505050565b6000806004600084815260200190815260200160002060009054906101000a900473ffffffffffffffffffffffffffffffffffffffff169050600073ffffffffffffffffffffffffffffffffffffffff168173ffffffffffffffffffffffffffffffffffffffff1603610cab576040517f08c379a0000000000000000000000000000000000000000000000000000000008152600401610ca29061371f565b60405180910390fd5b80915050919050565b60008073ffffffffffffffffffffffffffffffffffffffff168273ffffffffffffffffffffffffffffffffffffffff1603610d24576040517f08c379a0000000000000000000000000000000000000000000000000000000008152600401610d1b906137b1565b60405180910390fd5b600560008373ffffffffffffffffffffffffffffffffffffffff1673ffffffffffffffffffffffffffffffffffffffff168152602001908152602001600020549050919050565b610d736110fb565b610d7d60006118c5565b565b6000600d60009054906101000a900473ffffffffffffffffffffffffffffffffffffffff16905090565b606060038054610db89061321e565b80601f0160208091040260200160405190810160405280929190818152602001828054610de49061321e565b8015610e315780601f10610e0657610100808354040283529160200191610e31565b820191906000526020600020905b815481529060010190602001808311610e1457829003601f168201915b5050505050905090565b610e4d610e46611358565b838361198b565b5050565b610e62610e5c611358565b83611419565b610ea1576040517f08c379a0000000000000000000000000000000000000000000000000000000008152600401610e98906133e5565b60405180910390fd5b610ead84848484611af7565b50505050565b6060610ebe82611b53565b9050919050565b610ecd6110fb565b6000610ed9600e611c65565b9050610ee5600e611c73565b610eef8382611c89565b610ef98183611ca7565b82600f600083815260200190815260200160002060006101000a81548173ffffffffffffffffffffffffffffffffffffffff021916908373ffffffffffffffffffffffffffffffffffffffff160217905550505050565b6000610f5c600e611c65565b9050610f68600e611c73565b610f723382611c89565b610f7c8183611ca7565b33600f600083815260200190815260200160002060006101000a81548173ffffffffffffffffffffffffffffffffffffffff021916908373ffffffffffffffffffffffffffffffffffffffff1602179055505050565b6000600760008473ffffffffffffffffffffffffffffffffffffffff1673ffffffffffffffffffffffffffffffffffffffff16815260200190815260200160002060008373ffffffffffffffffffffffffffffffffffffffff1673ffffffffffffffffffffffffffffffffffffffff16815260200190815260200160002060009054906101000a900460ff16905092915050565b61106e6110fb565b600073ffffffffffffffffffffffffffffffffffffffff168173ffffffffffffffffffffffffffffffffffffffff16036110dd576040517f08c379a00000000000000000000000000000000000000000000000000000000081526004016110d490613843565b60405180910390fd5b6110e6816118c5565b50565b60006110f482611d14565b9050919050565b611103611358565b73ffffffffffffffffffffffffffffffffffffffff16611121610d7f565b73ffffffffffffffffffffffffffffffffffffffff1614611177576040517f08c379a000000000000000000000000000000000000000000000000000000000815260040161116e906138af565b60405180910390fd5b565b611181611714565b6bffffffffffffffffffffffff16816bffffffffffffffffffffffff1611156111df576040517f08c379a00000000000000000000000000000000000000000000000000000000081526004016111d690613941565b60405180910390fd5b600073ffffffffffffffffffffffffffffffffffffffff168273ffffffffffffffffffffffffffffffffffffffff160361124e576040517f08c379a0000000000000000000000000000000000000000000000000000000008152600401611245906139ad565b60405180910390fd5b60405180604001604052808373ffffffffffffffffffffffffffffffffffffffff168152602001826bffffffffffffffffffffffff168152506000808201518160000160006101000a81548173ffffffffffffffffffffffffffffffffffffffff021916908373ffffffffffffffffffffffffffffffffffffffff16021790555060208201518160000160146101000a8154816bffffffffffffffffffffffff02191690836bffffffffffffffffffffffff1602179055509050505050565b61131681611d8e565b611355576040517f08c379a000000000000000000000000000000000000000000000000000000000815260040161134c9061371f565b60405180910390fd5b50565b600033905090565b816006600083815260200190815260200160002060006101000a81548173ffffffffffffffffffffffffffffffffffffffff021916908373ffffffffffffffffffffffffffffffffffffffff160217905550808273ffffffffffffffffffffffffffffffffffffffff166113d383610c03565b73ffffffffffffffffffffffffffffffffffffffff167f8c5be1e5ebec7d5bd14f71427d1e84f3dd0314c0f7b2291e5b200ac8c7c3b92560405160405180910390a45050565b60008061142583610c03565b90508073ffffffffffffffffffffffffffffffffffffffff168473ffffffffffffffffffffffffffffffffffffffff16148061146757506114668185610fd2565b5b806114a557508373ffffffffffffffffffffffffffffffffffffffff1661148d846105f8565b73ffffffffffffffffffffffffffffffffffffffff16145b91505092915050565b8273ffffffffffffffffffffffffffffffffffffffff166114ce82610c03565b73ffffffffffffffffffffffffffffffffffffffff1614611524576040517f08c379a000000000000000000000000000000000000000000000000000000000815260040161151b90613a3f565b60405180910390fd5b600073ffffffffffffffffffffffffffffffffffffffff168273ffffffffffffffffffffffffffffffffffffffff1603611593576040517f08c379a000000000000000000000000000000000000000000000000000000000815260040161158a90613ad1565b60405180910390fd5b61159e838383611dfa565b6115a9600082611360565b6001600560008573ffffffffffffffffffffffffffffffffffffffff1673ffffffffffffffffffffffffffffffffffffffff16815260200190815260200160002060008282546115f99190613af1565b925050819055506001600560008473ffffffffffffffffffffffffffffffffffffffff1673ffffffffffffffffffffffffffffffffffffffff16815260200190815260200160002060008282546116509190613b25565b92505081905550816004600083815260200190815260200160002060006101000a81548173ffffffffffffffffffffffffffffffffffffffff021916908373ffffffffffffffffffffffffffffffffffffffff160217905550808273ffffffffffffffffffffffffffffffffffffffff168473ffffffffffffffffffffffffffffffffffffffff167fddf252ad1be2c89b69c2b068fc378daa952ba7f163c4a11628f55a4df523b3ef60405160405180910390a461170f838383611e0a565b505050565b6000612710905090565b611726611714565b6bffffffffffffffffffffffff16816bffffffffffffffffffffffff161115611784576040517f08c379a000000000000000000000000000000000000000000000000000000000815260040161177b90613941565b60405180910390fd5b600073ffffffffffffffffffffffffffffffffffffffff168273ffffffffffffffffffffffffffffffffffffffff16036117f3576040517f08c379a00000000000000000000000000000000000000000000000000000000081526004016117ea90613ba5565b60405180910390fd5b60405180604001604052808373ffffffffffffffffffffffffffffffffffffffff168152602001826bffffffffffffffffffffffff168152506001600085815260200190815260200160002060008201518160000160006101000a81548173ffffffffffffffffffffffffffffffffffffffff021916908373ffffffffffffffffffffffffffffffffffffffff16021790555060208201518160000160146101000a8154816bffffffffffffffffffffffff02191690836bffffffffffffffffffffffff160217905550905050505050565b6000600d60009054906101000a900473ffffffffffffffffffffffffffffffffffffffff16905081600d60006101000a81548173ffffffffffffffffffffffffffffffffffffffff021916908373ffffffffffffffffffffffffffffffffffffffff1602179055508173ffffffffffffffffffffffffffffffffffffffff168173ffffffffffffffffffffffffffffffffffffffff167f8be0079c531659141344cd1fd0a4f28419497f9722a3daafe3b4186f6b6457e060405160405180910390a35050565b8173ffffffffffffffffffffffffffffffffffffffff168373ffffffffffffffffffffffffffffffffffffffff16036119f9576040517f08c379a00000000000000000000000000000000000000000000000000000000081526004016119f090613c11565b60405180910390fd5b80600760008573ffffffffffffffffffffffffffffffffffffffff1673ffffffffffffffffffffffffffffffffffffffff16815260200190815260200160002060008473ffffffffffffffffffffffffffffffffffffffff1673ffffffffffffffffffffffffffffffffffffffff16815260200190815260200160002060006101000a81548160ff0219169083151502179055508173ffffffffffffffffffffffffffffffffffffffff168373ffffffffffffffffffffffffffffffffffffffff167f17307eab39ab6107e8899845ad3d59bd9653f200f220920489ca2b5937696c3183604051611aea9190612a63565b60405180910390a3505050565b611b028484846114ae565b611b0e84848484611e0f565b611b4d576040517f08c379a0000000000000000000000000000000000000000000000000000000008152600401611b4490613ca3565b60405180910390fd5b50505050565b6060611b5e8261130d565b6000600c60008481526020019081526020016000208054611b7e9061321e565b80601f0160208091040260200160405190810160405280929190818152602001828054611baa9061321e565b8015611bf75780601f10611bcc57610100808354040283529160200191611bf7565b820191906000526020600020905b815481529060010190602001808311611bda57829003601f168201915b505050505090506000611c08611f96565b90506000815103611c1d578192505050611c60565b600082511115611c52578082604051602001611c3a929190613cff565b60405160208183030381529060405292505050611c60565b611c5b84611fad565b925050505b919050565b600081600001549050919050565b6001816000016000828254019250508190555050565b611ca3828260405180602001604052806000815250612015565b5050565b611cb082611d8e565b611cef576040517f08c379a0000000000000000000000000000000000000000000000000000000008152600401611ce690613d95565b60405180910390fd5b80600c60008481526020019081526020016000209081611d0f9190613f61565b505050565b60007f780e9d63000000000000000000000000000000000000000000000000000000007bffffffffffffffffffffffffffffffffffffffffffffffffffffffff1916827bffffffffffffffffffffffffffffffffffffffffffffffffffffffff19161480611d875750611d8682612070565b5b9050919050565b60008073ffffffffffffffffffffffffffffffffffffffff166004600084815260200190815260200160002060009054906101000a900473ffffffffffffffffffffffffffffffffffffffff1673ffffffffffffffffffffffffffffffffffffffff1614159050919050565b611e05838383612152565b505050565b505050565b6000611e308473ffffffffffffffffffffffffffffffffffffffff16612264565b15611f89578373ffffffffffffffffffffffffffffffffffffffff1663150b7a02611e59611358565b8786866040518563ffffffff1660e01b8152600401611e7b9493929190614088565b6020604051808303816000875af1925050508015611eb757506040513d601f19601f82011682018060405250810190611eb491906140e9565b60015b611f39573d8060008114611ee7576040519150601f19603f3d011682016040523d82523d6000602084013e611eec565b606091505b506000815103611f31576040517f08c379a0000000000000000000000000000000000000000000000000000000008152600401611f2890613ca3565b60405180910390fd5b805181602001fd5b63150b7a0260e01b7bffffffffffffffffffffffffffffffffffffffffffffffffffffffff1916817bffffffffffffffffffffffffffffffffffffffffffffffffffffffff191614915050611f8e565b600190505b949350505050565b606060405180602001604052806000815250905090565b6060611fb88261130d565b6000611fc2611f96565b90506000815111611fe2576040518060200160405280600081525061200d565b80611fec84612287565b604051602001611ffd929190613cff565b6040516020818303038152906040525b915050919050565b61201f83836123e7565b61202c6000848484611e0f565b61206b576040517f08c379a000000000000000000000000000000000000000000000000000000000815260040161206290613ca3565b60405180910390fd5b505050565b60007f80ac58cd000000000000000000000000000000000000000000000000000000007bffffffffffffffffffffffffffffffffffffffffffffffffffffffff1916827bffffffffffffffffffffffffffffffffffffffffffffffffffffffff1916148061213b57507f5b5e139f000000000000000000000000000000000000000000000000000000007bffffffffffffffffffffffffffffffffffffffffffffffffffffffff1916827bffffffffffffffffffffffffffffffffffffffffffffffffffffffff1916145b8061214b575061214a826125c0565b5b9050919050565b61215d83838361263a565b600073ffffffffffffffffffffffffffffffffffffffff168373ffffffffffffffffffffffffffffffffffffffff160361219f5761219a8161263f565b6121de565b8173ffffffffffffffffffffffffffffffffffffffff168373ffffffffffffffffffffffffffffffffffffffff16146121dd576121dc8382612688565b5b5b600073ffffffffffffffffffffffffffffffffffffffff168273ffffffffffffffffffffffffffffffffffffffff16036122205761221b816127f5565b61225f565b8273ffffffffffffffffffffffffffffffffffffffff168273ffffffffffffffffffffffffffffffffffffffff161461225e5761225d82826128c6565b5b5b505050565b6000808273ffffffffffffffffffffffffffffffffffffffff163b119050919050565b6060600082036122ce576040518060400160405280600181526020017f300000000000000000000000000000000000000000000000000000000000000081525090506123e2565b600082905060005b600082146123005780806122e990614116565b915050600a826122f991906134bd565b91506122d6565b60008167ffffffffffffffff81111561231c5761231b612ebb565b5b6040519080825280601f01601f19166020018201604052801561234e5781602001600182028036833780820191505090505b5090505b600085146123db576001826123679190613af1565b9150600a85612376919061415e565b60306123829190613b25565b60f81b81838151811061239857612397613612565b5b60200101907effffffffffffffffffffffffffffffffffffffffffffffffffffffffffffff1916908160001a905350600a856123d491906134bd565b9450612352565b8093505050505b919050565b600073ffffffffffffffffffffffffffffffffffffffff168273ffffffffffffffffffffffffffffffffffffffff1603612456576040517f08c379a000000000000000000000000000000000000000000000000000000000815260040161244d906141db565b60405180910390fd5b61245f81611d8e565b1561249f576040517f08c379a000000000000000000000000000000000000000000000000000000000815260040161249690614247565b60405180910390fd5b6124ab60008383611dfa565b6001600560008473ffffffffffffffffffffffffffffffffffffffff1673ffffffffffffffffffffffffffffffffffffffff16815260200190815260200160002060008282546124fb9190613b25565b92505081905550816004600083815260200190815260200160002060006101000a81548173ffffffffffffffffffffffffffffffffffffffff021916908373ffffffffffffffffffffffffffffffffffffffff160217905550808273ffffffffffffffffffffffffffffffffffffffff16600073ffffffffffffffffffffffffffffffffffffffff167fddf252ad1be2c89b69c2b068fc378daa952ba7f163c4a11628f55a4df523b3ef60405160405180910390a46125bc60008383611e0a565b5050565b60007f2a55205a000000000000000000000000000000000000000000000000000000007bffffffffffffffffffffffffffffffffffffffffffffffffffffffff1916827bffffffffffffffffffffffffffffffffffffffffffffffffffffffff19161480612633575061263282612945565b5b9050919050565b505050565b600a80549050600b600083815260200190815260200160002081905550600a81908060018154018082558091505060019003906000526020600020016000909190919091505550565b6000600161269584610cb4565b61269f9190613af1565b9050600060096000848152602001908152602001600020549050818114612784576000600860008673ffffffffffffffffffffffffffffffffffffffff1673ffffffffffffffffffffffffffffffffffffffff168152602001908152602001600020600084815260200190815260200160002054905080600860008773ffffffffffffffffffffffffffffffffffffffff1673ffffffffffffffffffffffffffffffffffffffff168152602001908152602001600020600084815260200190815260200160002081905550816009600083815260200190815260200160002081905550505b6009600084815260200190815260200160002060009055600860008573ffffffffffffffffffffffffffffffffffffffff1673ffffffffffffffffffffffffffffffffffffffff16815260200190815260200160002060008381526020019081526020016000206000905550505050565b60006001600a805490506128099190613af1565b90506000600b60008481526020019081526020016000205490506000600a838154811061283957612838613612565b5b9060005260206000200154905080600a838154811061285b5761285a613612565b5b906000526020600020018190555081600b600083815260200190815260200160002081905550600b600085815260200190815260200160002060009055600a8054806128aa576128a9614267565b5b6001900381819060005260206000200160009055905550505050565b60006128d183610cb4565b905081600860008573ffffffffffffffffffffffffffffffffffffffff1673ffffffffffffffffffffffffffffffffffffffff168152602001908152602001600020600083815260200190815260200160002081905550806009600084815260200190815260200160002081905550505050565b60007f01ffc9a7000000000000000000000000000000000000000000000000000000007bffffffffffffffffffffffffffffffffffffffffffffffffffffffff1916827bffffffffffffffffffffffffffffffffffffffffffffffffffffffff1916149050919050565b6000604051905090565b600080fd5b600080fd5b60007fffffffff0000000000000000000000000000000000000000000000000000000082169050919050565b6129f8816129c3565b8114612a0357600080fd5b50565b600081359050612a15816129ef565b92915050565b600060208284031215612a3157612a306129b9565b5b6000612a3f84828501612a06565b91505092915050565b60008115159050919050565b612a5d81612a48565b82525050565b6000602082019050612a786000830184612a54565b92915050565b600073ffffffffffffffffffffffffffffffffffffffff82169050919050565b6000612aa982612a7e565b9050919050565b612ab981612a9e565b8114612ac457600080fd5b50565b600081359050612ad681612ab0565b92915050565b60006bffffffffffffffffffffffff82169050919050565b612afd81612adc565b8114612b0857600080fd5b50565b600081359050612b1a81612af4565b92915050565b60008060408385031215612b3757612b366129b9565b5b6000612b4585828601612ac7565b9250506020612b5685828601612b0b565b9150509250929050565b600081519050919050565b600082825260208201905092915050565b60005b83811015612b9a578082015181840152602081019050612b7f565b60008484015250505050565b6000601f19601f8301169050919050565b6000612bc282612b60565b612bcc8185612b6b565b9350612bdc818560208601612b7c565b612be581612ba6565b840191505092915050565b60006020820190508181036000830152612c0a8184612bb7565b905092915050565b6000819050919050565b612c2581612c12565b8114612c3057600080fd5b50565b600081359050612c4281612c1c565b92915050565b600060208284031215612c5e57612c5d6129b9565b5b6000612c6c84828501612c33565b91505092915050565b612c7e81612a9e565b82525050565b6000602082019050612c996000830184612c75565b92915050565b60008060408385031215612cb657612cb56129b9565b5b6000612cc485828601612ac7565b9250506020612cd585828601612c33565b9150509250929050565b612ce881612c12565b82525050565b6000602082019050612d036000830184612cdf565b92915050565b600080600060608486031215612d2257612d216129b9565b5b6000612d3086828701612ac7565b9350506020612d4186828701612ac7565b9250506040612d5286828701612c33565b9150509250925092565b60008060408385031215612d7357612d726129b9565b5b6000612d8185828601612c33565b9250506020612d9285828601612c33565b9150509250929050565b6000604082019050612db16000830185612c75565b612dbe6020830184612cdf565b9392505050565b600080600060608486031215612dde57612ddd6129b9565b5b6000612dec86828701612c33565b9350506020612dfd86828701612ac7565b9250506040612e0e86828701612b0b565b9150509250925092565b600060208284031215612e2e57612e2d6129b9565b5b6000612e3c84828501612ac7565b91505092915050565b612e4e81612a48565b8114612e5957600080fd5b50565b600081359050612e6b81612e45565b92915050565b60008060408385031215612e8857612e876129b9565b5b6000612e9685828601612ac7565b9250506020612ea785828601612e5c565b9150509250929050565b600080fd5b600080fd5b7f4e487b7100000000000000000000000000000000000000000000000000000000600052604160045260246000fd5b612ef382612ba6565b810181811067ffffffffffffffff82111715612f1257612f11612ebb565b5b80604052505050565b6000612f256129af565b9050612f318282612eea565b919050565b600067ffffffffffffffff821115612f5157612f50612ebb565b5b612f5a82612ba6565b9050602081019050919050565b82818337600083830152505050565b6000612f89612f8484612f36565b612f1b565b905082815260208101848484011115612fa557612fa4612eb6565b5b612fb0848285612f67565b509392505050565b600082601f830112612fcd57612fcc612eb1565b5b8135612fdd848260208601612f76565b91505092915050565b6000806000806080858703121561300057612fff6129b9565b5b600061300e87828801612ac7565b945050602061301f87828801612ac7565b935050604061303087828801612c33565b925050606085013567ffffffffffffffff811115613051576130506129be565b5b61305d87828801612fb8565b91505092959194509250565b600067ffffffffffffffff82111561308457613083612ebb565b5b61308d82612ba6565b9050602081019050919050565b60006130ad6130a884613069565b612f1b565b9050828152602081018484840111156130c9576130c8612eb6565b5b6130d4848285612f67565b509392505050565b600082601f8301126130f1576130f0612eb1565b5b813561310184826020860161309a565b91505092915050565b60008060408385031215613121576131206129b9565b5b600061312f85828601612ac7565b925050602083013567ffffffffffffffff8111156131505761314f6129be565b5b61315c858286016130dc565b9150509250929050565b60006020828403121561317c5761317b6129b9565b5b600082013567ffffffffffffffff81111561319a576131996129be565b5b6131a6848285016130dc565b91505092915050565b600080604083850312156131c6576131c56129b9565b5b60006131d485828601612ac7565b92505060206131e585828601612ac7565b9150509250929050565b7f4e487b7100000000000000000000000000000000000000000000000000000000600052602260045260246000fd5b6000600282049050600182168061323657607f821691505b602082108103613249576132486131ef565b5b50919050565b7f4552433732313a20617070726f76616c20746f2063757272656e74206f776e6560008201527f7200000000000000000000000000000000000000000000000000000000000000602082015250565b60006132ab602183612b6b565b91506132b68261324f565b604082019050919050565b600060208201905081810360008301526132da8161329e565b9050919050565b7f4552433732313a20617070726f76652063616c6c6572206973206e6f7420746f60008201527f6b656e206f776e6572206e6f7220617070726f76656420666f7220616c6c0000602082015250565b600061333d603e83612b6b565b9150613348826132e1565b604082019050919050565b6000602082019050818103600083015261336c81613330565b9050919050565b7f4552433732313a2063616c6c6572206973206e6f7420746f6b656e206f776e6560008201527f72206e6f7220617070726f766564000000000000000000000000000000000000602082015250565b60006133cf602e83612b6b565b91506133da82613373565b604082019050919050565b600060208201905081810360008301526133fe816133c2565b9050919050565b7f4e487b7100000000000000000000000000000000000000000000000000000000600052601160045260246000fd5b600061343f82612c12565b915061344a83612c12565b9250817fffffffffffffffffffffffffffffffffffffffffffffffffffffffffffffffff048311821515161561348357613482613405565b5b828202905092915050565b7f4e487b7100000000000000000000000000000000000000000000000000000000600052601260045260246000fd5b60006134c882612c12565b91506134d383612c12565b9250826134e3576134e261348e565b5b828204905092915050565b7f455243373231456e756d657261626c653a206f776e657220696e646578206f7560008201527f74206f6620626f756e6473000000000000000000000000000000000000000000602082015250565b600061354a602b83612b6b565b9150613555826134ee565b604082019050919050565b600060208201905081810360008301526135798161353d565b9050919050565b7f455243373231456e756d657261626c653a20676c6f62616c20696e646578206f60008201527f7574206f6620626f756e64730000000000000000000000000000000000000000602082015250565b60006135dc602c83612b6b565b91506135e782613580565b604082019050919050565b6000602082019050818103600083015261360b816135cf565b9050919050565b7f4e487b7100000000000000000000000000000000000000000000000000000000600052603260045260246000fd5b7f4f6e6c792063726561746f722063616e2073657420746f6b656e20726f79616c60008201527f74792e0000000000000000000000000000000000000000000000000000000000602082015250565b600061369d602383612b6b565b91506136a882613641565b604082019050919050565b600060208201905081810360008301526136cc81613690565b9050919050565b7f4552433732313a20696e76616c696420746f6b656e2049440000000000000000600082015250565b6000613709601883612b6b565b9150613714826136d3565b602082019050919050565b60006020820190508181036000830152613738816136fc565b9050919050565b7f4552433732313a2061646472657373207a65726f206973206e6f74206120766160008201527f6c6964206f776e65720000000000000000000000000000000000000000000000602082015250565b600061379b602983612b6b565b91506137a68261373f565b604082019050919050565b600060208201905081810360008301526137ca8161378e565b9050919050565b7f4f776e61626c653a206e6577206f776e657220697320746865207a65726f206160008201527f6464726573730000000000000000000000000000000000000000000000000000602082015250565b600061382d602683612b6b565b9150613838826137d1565b604082019050919050565b6000602082019050818103600083015261385c81613820565b9050919050565b7f4f776e61626c653a2063616c6c6572206973206e6f7420746865206f776e6572600082015250565b6000613899602083612b6b565b91506138a482613863565b602082019050919050565b600060208201905081810360008301526138c88161388c565b9050919050565b7f455243323938313a20726f79616c7479206665652077696c6c2065786365656460008201527f2073616c65507269636500000000000000000000000000000000000000000000602082015250565b600061392b602a83612b6b565b9150613936826138cf565b604082019050919050565b6000602082019050818103600083015261395a8161391e565b9050919050565b7f455243323938313a20696e76616c696420726563656976657200000000000000600082015250565b6000613997601983612b6b565b91506139a282613961565b602082019050919050565b600060208201905081810360008301526139c68161398a565b9050919050565b7f4552433732313a207472616e736665722066726f6d20696e636f72726563742060008201527f6f776e6572000000000000000000000000000000000000000000000000000000602082015250565b6000613a29602583612b6b565b9150613a34826139cd565b604082019050919050565b60006020820190508181036000830152613a5881613a1c565b9050919050565b7f4552433732313a207472616e7366657220746f20746865207a65726f2061646460008201527f7265737300000000000000000000000000000000000000000000000000000000602082015250565b6000613abb602483612b6b565b9150613ac682613a5f565b604082019050919050565b60006020820190508181036000830152613aea81613aae565b9050919050565b6000613afc82612c12565b9150613b0783612c12565b9250828203905081811115613b1f57613b1e613405565b5b92915050565b6000613b3082612c12565b9150613b3b83612c12565b9250828201905080821115613b5357613b52613405565b5b92915050565b7f455243323938313a20496e76616c696420706172616d65746572730000000000600082015250565b6000613b8f601b83612b6b565b9150613b9a82613b59565b602082019050919050565b60006020820190508181036000830152613bbe81613b82565b9050919050565b7f4552433732313a20617070726f766520746f2063616c6c657200000000000000600082015250565b6000613bfb601983612b6b565b9150613c0682613bc5565b602082019050919050565b60006020820190508181036000830152613c2a81613bee565b9050919050565b7f4552433732313a207472616e7366657220746f206e6f6e20455243373231526560008201527f63656976657220696d706c656d656e7465720000000000000000000000000000602082015250565b6000613c8d603283612b6b565b9150613c9882613c31565b604082019050919050565b60006020820190508181036000830152613cbc81613c80565b9050919050565b600081905092915050565b6000613cd982612b60565b613ce38185613cc3565b9350613cf3818560208601612b7c565b80840191505092915050565b6000613d0b8285613cce565b9150613d178284613cce565b91508190509392505050565b7f45524337323155524953746f726167653a2055524920736574206f66206e6f6e60008201527f6578697374656e7420746f6b656e000000000000000000000000000000000000602082015250565b6000613d7f602e83612b6b565b9150613d8a82613d23565b604082019050919050565b60006020820190508181036000830152613dae81613d72565b9050919050565b60008190508160005260206000209050919050565b60006020601f8301049050919050565b600082821b905092915050565b600060088302613e177fffffffffffffffffffffffffffffffffffffffffffffffffffffffffffffffff82613dda565b613e218683613dda565b95508019841693508086168417925050509392505050565b6000819050919050565b6000613e5e613e59613e5484612c12565b613e39565b612c12565b9050919050565b6000819050919050565b613e7883613e43565b613e8c613e8482613e65565b848454613de7565b825550505050565b600090565b613ea1613e94565b613eac818484613e6f565b505050565b5b81811015613ed057613ec5600082613e99565b600181019050613eb2565b5050565b601f821115613f1557613ee681613db5565b613eef84613dca565b81016020851015613efe578190505b613f12613f0a85613dca565b830182613eb1565b50505b505050565b600082821c905092915050565b6000613f3860001984600802613f1a565b1980831691505092915050565b6000613f518383613f27565b9150826002028217905092915050565b613f6a82612b60565b67ffffffffffffffff811115613f8357613f82612ebb565b5b613f8d825461321e565b613f98828285613ed4565b600060209050601f831160018114613fcb5760008415613fb9578287015190505b613fc38582613f45565b86555061402b565b601f198416613fd986613db5565b60005b8281101561400157848901518255600182019150602085019450602081019050613fdc565b8683101561401e578489015161401a601f891682613f27565b8355505b6001600288020188555050505b505050505050565b600081519050919050565b600082825260208201905092915050565b600061405a82614033565b614064818561403e565b9350614074818560208601612b7c565b61407d81612ba6565b840191505092915050565b600060808201905061409d6000830187612c75565b6140aa6020830186612c75565b6140b76040830185612cdf565b81810360608301526140c9818461404f565b905095945050505050565b6000815190506140e3816129ef565b92915050565b6000602082840312156140ff576140fe6129b9565b5b600061410d848285016140d4565b91505092915050565b600061412182612c12565b91507fffffffffffffffffffffffffffffffffffffffffffffffffffffffffffffffff820361415357614152613405565b5b600182019050919050565b600061416982612c12565b915061417483612c12565b9250826141845761418361348e565b5b828206905092915050565b7f4552433732313a206d696e7420746f20746865207a65726f2061646472657373600082015250565b60006141c5602083612b6b565b91506141d08261418f565b602082019050919050565b600060208201905081810360008301526141f4816141b8565b9050919050565b7f4552433732313a20746f6b656e20616c7265616479206d696e74656400000000600082015250565b6000614231601c83612b6b565b915061423c826141fb565b602082019050919050565b6000602082019050818103600083015261426081614224565b9050919050565b7f4e487b7100000000000000000000000000000000000000000000000000000000600052603160045260246000fdfea2646970667358221220dc9a8e106506abb63c6703d2a077c3a3d23c00105cb6990568e9c5bf310b7f5164736f6c63430008100033",
  "immutableReferences": {},
  "source": "pragma solidity ^0.8.0;\r\n\r\nimport \"@openzeppelin/contracts/token/ERC721/ERC721.sol\";\r\nimport \"@openzeppelin/contracts/token/ERC721/extensions/ERC721Enumerable.sol\";\r\nimport \"@openzeppelin/contracts/token/ERC721/extensions/ERC721URIStorage.sol\";\r\nimport \"@openzeppelin/contracts/token/ERC721/extensions/ERC721Royalty.sol\";\r\nimport \"@openzeppelin/contracts/access/Ownable.sol\";\r\nimport \"@openzeppelin/contracts/utils/Counters.sol\";\r\n// import \"hardhat/console.sol\";\r\n\r\ncontract NFT is\r\n    ERC721,\r\n    ERC721Enumerable,\r\n    ERC721URIStorage,\r\n    ERC721Royalty,\r\n    Ownable\r\n{\r\n    using Counters for Counters.Counter;\r\n\r\n    Counters.Counter private _tokenIdCounter;\r\n\r\n    mapping(uint256 => address) public _creators;\r\n\r\n    constructor()\r\n        ERC721('ZNFT', 'ZFT')\r\n    {}\r\n\r\n    function safeMint(address to, string memory uri) public onlyOwner {\r\n        uint256 tokenId = _tokenIdCounter.current();\r\n        _tokenIdCounter.increment();\r\n        _safeMint(to, tokenId);\r\n        _setTokenURI(tokenId, uri);\r\n        _creators[tokenId] = to;\r\n    }\r\n\r\n    function mint(string memory uri) public {\r\n        uint256 tokenId = _tokenIdCounter.current();\r\n        _tokenIdCounter.increment();\r\n        _safeMint(msg.sender, tokenId);\r\n        _setTokenURI(tokenId, uri);\r\n        _creators[tokenId] = msg.sender;\r\n    }\r\n\r\n    // The following functions are overrides required by Solidity.\r\n\r\n    function _beforeTokenTransfer(\r\n        address from,\r\n        address to,\r\n        uint256 tokenId\r\n    ) internal override(ERC721, ERC721Enumerable) {\r\n        super._beforeTokenTransfer(from, to, tokenId);\r\n    }\r\n\r\n    function _burn(uint256 tokenId)\r\n        internal\r\n        override(ERC721, ERC721URIStorage, ERC721Royalty)\r\n    {\r\n        super._burn(tokenId);\r\n    }\r\n\r\n    function tokenURI(uint256 tokenId)\r\n        public\r\n        view\r\n        override(ERC721, ERC721URIStorage)\r\n        returns (string memory)\r\n    {\r\n        return super.tokenURI(tokenId);\r\n    }\r\n\r\n    function supportsInterface(bytes4 interfaceId)\r\n        public\r\n        view\r\n        override(ERC721, ERC721Enumerable, ERC721Royalty)\r\n        returns (bool)\r\n    {\r\n        return super.supportsInterface(interfaceId);\r\n    }\r\n\r\n    function setDefaultRoyalty(address receiver, uint96 feeNumerator) public onlyOwner{\r\n        super._setDefaultRoyalty(receiver, feeNumerator);\r\n    }\r\n\r\n    function creatorOf(uint256 tokenId) public view returns(address) {\r\n        return _creators[tokenId];\r\n    }\r\n\r\n    function setTokenRoyalty(uint256 tokenId, address receiver, uint96 feeNumerator) public {\r\n        require(msg.sender == _creators[tokenId], \"Only creator can set token royalty.\");\r\n        super._setTokenRoyalty(tokenId, receiver, feeNumerator);\r\n    }\r\n}",
  "sourcePath": "D:\\Programming\\nft-marketplace\\client\\contracts\\NFT.sol",
  "compiler": {
    "name": "solc",
    "version": "0.8.16+commit.07a7930e.Emscripten.clang"
  },
  "schemaVersion": "3.4.9",
  "updatedAt": "2022-08-23T00:55:32.839Z",
  "devdoc": {
    "kind": "dev",
    "methods": {
      "approve(address,uint256)": {
        "details": "See {IERC721-approve}."
      },
      "balanceOf(address)": {
        "details": "See {IERC721-balanceOf}."
      },
      "getApproved(uint256)": {
        "details": "See {IERC721-getApproved}."
      },
      "isApprovedForAll(address,address)": {
        "details": "See {IERC721-isApprovedForAll}."
      },
      "name()": {
        "details": "See {IERC721Metadata-name}."
      },
      "owner()": {
        "details": "Returns the address of the current owner."
      },
      "ownerOf(uint256)": {
        "details": "See {IERC721-ownerOf}."
      },
      "renounceOwnership()": {
        "details": "Leaves the contract without owner. It will not be possible to call `onlyOwner` functions anymore. Can only be called by the current owner. NOTE: Renouncing ownership will leave the contract without an owner, thereby removing any functionality that is only available to the owner."
      },
      "royaltyInfo(uint256,uint256)": {
        "details": "Returns how much royalty is owed and to whom, based on a sale price that may be denominated in any unit of exchange. The royalty amount is denominated and should be paid in that same unit of exchange."
      },
      "safeTransferFrom(address,address,uint256)": {
        "details": "See {IERC721-safeTransferFrom}."
      },
      "safeTransferFrom(address,address,uint256,bytes)": {
        "details": "See {IERC721-safeTransferFrom}."
      },
      "setApprovalForAll(address,bool)": {
        "details": "See {IERC721-setApprovalForAll}."
      },
      "symbol()": {
        "details": "See {IERC721Metadata-symbol}."
      },
      "tokenByIndex(uint256)": {
        "details": "See {IERC721Enumerable-tokenByIndex}."
      },
      "tokenOfOwnerByIndex(address,uint256)": {
        "details": "See {IERC721Enumerable-tokenOfOwnerByIndex}."
      },
      "totalSupply()": {
        "details": "See {IERC721Enumerable-totalSupply}."
      },
      "transferFrom(address,address,uint256)": {
        "details": "See {IERC721-transferFrom}."
      },
      "transferOwnership(address)": {
        "details": "Transfers ownership of the contract to a new account (`newOwner`). Can only be called by the current owner."
      }
    },
    "version": 1
  },
  "userdoc": {
    "kind": "user",
    "methods": {},
    "version": 1
  }
}